:100000000C9432010C948C0A0C94650A0C945A01DD
:100010000C945A010C945A010C949F060C945A01AA
:100020000C945A010C945A010C945A010C945A01E4
:100030000C945A010C945A010C945A010C945A01D4
:100040000C940F0A0C945A010C94040B0C94DE0AC5
:100050000C945A010C945A010C945A010C945A01B4
:100060000C945A010C945A01F210BA10F210F210CA
:10007000C610D810E810200000000000240027005F
:100080002A0000000000250028002B0000000000CE
:1000900023002600290004040404040404040202CA
:1000A00002020202030303030303010204081020F7
:1000B0004080010204081020010204081020000002
:1000C0000008000201000003040700000000000017
:1000D00000004E4D3A494E49543A4C49422056454B
:1000E000523D322E332E312043503D524E4E4E4122
:1000F0002D2D2D200A004E4D3A494E49543A494E75
:100100004F3D4D7957616C6C537769746368207605
:10011000312E300A004E4D3A494E49543A56455216
:100120003D312E380A004E4D3A4246523A494E4928
:10013000540A004E4D3A494E49543A5242542070A6
:100140003D25640A004E4D3A4246523A494E5420EB
:10015000703D2564206D3D25640A004E4D3A4246AF
:10016000523A494E5420703D2564206D3D25640A65
:10017000004E4D3A5354503A485720563D2564207E
:10018000463D2564204D3D25640A004E4D3A5354AA
:10019000503A49443D2564204D3D25640A004E4DAA
:1001A0003A505245533A25732825642920703D253D
:1001B0006420743D25640A004E4D3A4246523A4F3F
:1001C0004B0A004E4D3A534C503A4157414B450A69
:1001D000004E4D3A534C503A534C45455020733DD8
:1001E00025640A0A004E4D3A4C4F4F503A494E543E
:1001F00020703D256420763D25640A004E4D3A4C22
:100200004F4F503A2573282564293A53455420749A
:100210003D256420763D25642E253034640A004E49
:100220004D3A4C4F4F503A2573282564293A53458F
:100230005420743D256420763D25642E253032649B
:100240000A004E4D3A4C4F4F503A257328256429E9
:100250003A53455420743D256420763D25640A00B8
:100260001D18371A11241FBECFEFD8E0DEBFCDBF57
:1002700011E0A0E0B1E0E6E8F6E402C005900D92DE
:10028000AA3AB107D9F723E0AAEAB1E001C01D926A
:10029000A438B207E1F711E0C1E3D1E004C021972F
:1002A000FE010E940222C033D107C9F70E94E61A5C
:1002B0000C9436230C940000809175038460809325
:1002C000750380917603807880937603E0917A03BA
:1002D000F0917B03309709F0099408950F931F93D1
:1002E000CF93DF938C01FC0186810E944B08EC01C7
:1002F000009771F0B8010E94D215EEA1FFA13097CE
:1003000039F0B801CE01DF91CF911F910F9109947F
:10031000DF91CF911F910F910895E5E7F3E0808180
:10032000877F8F7E808310927103109272031092E8
:1003300073031092740344E050E060E070E08DEAD3
:1003400091E00C94352183B78E7F83BF80910101AA
:100350000E94B30A80911F018F3F21F48091010117
:1003600080931F01089583B78E7F83BF8091000122
:100370000E94B30A80911F018F3F21F480910001F8
:1003800080931F010895FC018381877088608383B7
:1003900084818F71806284836783CF0108950F9376
:1003A0001F93CF93DF93EC016115710561F0FB01A1
:1003B00001900020E9F73197E61BF70BE931F105D1
:1003C00018F0E9E101C0E0E00E2F10E08B81282F4A
:1003D0002770C80133E0880F991F3A95E1F7822B07
:1003E0008B838C818F718C83EE2329F0A801CE0141
:1003F00007960E942723FE01E00FF11F1782CE010E
:10040000DF91CF911F910F910895CF93DF93FC015E
:10041000108211821282148215821682DC011796D4
:100420008AE1ED0119928A95E9F782E08383DF91F1
:10043000CF9108958091750384FD0C94B1110895B6
:10044000E0916B03F0916C03309721F00280F3810F
:10045000E02D099408950F931F930E94CB090091FA
:100460006D0310916E0320916F0330917003601B38
:10047000710B820B930B1F910F9108959C0180913A
:100480006B0390916C038217930751F09091750361
:100490009F719093750330936C0320936B0305C099
:1004A00080917503805E80937503E0916B03F091FA
:1004B0006C03309721F00190F081E02D09950E94A6
:1004C000CB0960936D0370936E0380936F039093D9
:1004D000700308950F931F930E942B0220917603BF
:1004E0002077203729F000E117E220E030E004C057
:1004F00000E61AEE20E030E0061717072807390754
:1005000030F482E291E01F910F910C943E021F9112
:100510000F910895809176038F70863020F087E1E7
:1005200091E00C943E020895809177038F3FA1F0F3
:100530000E94CB09609371037093720380937303DD
:1005400090937403809177039091AF018913809306
:10055000AF0183E191E013C00E942B02613D77401F
:100560008105910570F080917503803618F48FE055
:1005700091E005C0877F8093750387E191E00C943B
:100580003E0208958091AD018F3F19F08FE091E018
:1005900010C00E942B02613D77408105910558F003
:1005A00080917503803618F48BE091E002C087E0FB
:1005B00091E00C943E0208950E942B02613D774029
:1005C0008105910520F48091750381FF0895809144
:1005D000AE018F3F41F0809175038E7F809375034C
:1005E0008BE091E009C080917503803618F487E1B3
:1005F00091E002C087E091E00C943E0290E59CBD42
:100600001DBC2A98E0E1F0E03197F1F78EBD0000C3
:100610000DB407FEFDCF8EB5FB019FEF4150C8F032
:10062000222361F09EBD00000DB407FEFDCF8EB504
:100630006115710599F380833196F0CFDF01119632
:1006400080818EBD00000DB407FEFDCF8EB5FD018B
:10065000E5CF2A9AE0E1F0E03197F1F70895CF93E2
:10066000DF931F92CDB7DEB7698320E041E0BE0182
:100670006F5F7F4F0E94FE020F90DF91CF91089530
:100680005F986EE080E20E942F0384E293E201977C
:10069000F1F708955F986CE080E20C942F0380914D
:1006A0007603982F9077903759F0982F92959F70F6
:1006B0009F5F97709295907F8F78892B80937603B8
:1006C000809175038B7F8F7E809375030C944A0312
:1006D0006FE080E20E942F03609120016F3F19F0CC
:1006E0008AE20E942F035F9A089521E041E060E0D2
:1006F00070E00C94FE0220E040E060E070E00C94BA
:10070000FE02EF92FF921F93CF93DF93182F7B018E
:100710008091AD01FB018083438142FD06C0469577
:1007200046954695C7E0C40F01C0C0E2D091B00124
:10073000D1705F9880E091E00197F1F76EE080E280
:100740000E942F0384EC90E00197F1F7612F8AE279
:100750000E942F03612F80E30E942F0381EE0E94ED
:100760007B031F3F11F0DD2311F080EB01C080EA15
:100770004C2FC13208F040E220E0B7010E94FE0297
:100780005F9AE12CF12C8FEF0E947B03C82F8073BE
:1007900021F4F1E0EF1AF108B1F75F9860E387E226
:1007A0000E942F03C4FF03C081EE0E947B030E94BE
:1007B0006803C5FDD1E081E01F3F09F080E08D2B8B
:1007C000DF91CF911F91FF90EF9008950F931F93AA
:1007D000CF938C01FC0182819091750390FF03C03F
:1007E0008F3F39F50CC0882339F08F3F41F0B801B5
:1007F0000E94810381111EC0C091AE0101C0CFEFE4
:10080000B8018C2F0E9481039091AE01C91312C0D0
:1008100090917603811108C081E0890F8F70907FDD
:10082000982B9093760305C0907F9093760381E098
:1008300001C080E0CF911F910F9108952091750321
:1008400022FD0C94E60380E008950F938FEF8093D0
:100850007703E5E7F3E080818860808300E028E1AA
:1008600043E06FEF80E00E940A0861E00E94C3014C
:100870000F910C94E6030F938091AD018F3FC1F46B
:100880000E94CB096F3F19F06093210102C01092C2
:10089000210100E023E043E06091210180E00E941B
:1008A0000A0868EA71E00E94CF010F910C94E603F8
:1008B0000F9108950F93E5E7F3E08081897F8160D0
:1008C0008083EDEAF1E08FEF8283818300E027E00F
:1008D00043E06FEF0E940A0868EA71E00E94CF01CE
:1008E0000F910C94E603CF93579A229A5F982A9A15
:1008F000CFB7F8948091AA01811127C0E0EAF0E017
:100900008491E4EBF0E09491E82FF0E0EE0FFF1F0C
:10091000E858FF4FA591B491EC91E92321F461E0EF
:100920008AE00E94260961E08AE00E9455098CB5A0
:1009300080618CBD8CB580648CBD61E08DE00E94CF
:10094000550961E08BE00E9455098091AA018F5FF3
:100950008093AA01CFBF0E94400363E083E20E941C
:100960002F036FE584E20E942F036CE485E20E946E
:100970002F0365E286E20E942F0364E08DE30E946C
:100980002F038DE10E947503843041F063E780E519
:100990000E942F0364E08DE30E942F0386E00E94F3
:1009A0007503853209F04AC085E00E9475038C34D6
:1009B00009F044C062E082E20E942F0360E081E21D
:1009C0000E942F0363E08CE30E942F03CFEFC093BC
:1009D000020120E045E062E071E08BE20E94FE024D
:1009E00020E045E062E071E08AE20E94FE0220E041
:1009F00045E062E071E080E30E94FE0282EE0E9428
:100A00007B0381EE0E947B0360E787E20E942F0355
:100A1000809175038061809375038091B0018E7F12
:100A20008093B0018091AD018F3F69F09FEF980FE7
:100A30009E3F60F40E949711811105C087E091E00C
:100A4000CF910C943E0287E191E0FACFC093AD01C3
:100A5000F5CFCF92DF92EF92FF920F931F93CF9338
:100A6000DF93CDB7DEB7C857D1090FB6F894DEBF14
:100A70000FBECDBF0E94CB099B01AC0119A28E0114
:100A80000F5D1F4F8AE0C82ED12CE12CF12CCA013A
:100A9000B901A70196010E94E021605DF80162930F
:100AA0008F01211531054105510589F7309761F016
:100AB00001900020E9F73197AF01401B510BB801BD
:100AC00081EB91E00E94F80606E710E0F8016491DE
:100AD000611132C09E012B573F4FCD57DF4F4881E8
:100AE0005981C358D04068E770E08E010F5F1F4FF7
:100AF000C8010E94591DF80101900020E9F73197C3
:100B0000AF01401B510BB80181EB91E00E94F80648
:100B100081EB91E00E94DC07C858DF4F0FB6F894D4
:100B2000DEBF0FBECDBFDF91CF911F910F91FF9020
:100B3000EF90DF90CF90089581EB91E00E948F07B6
:100B40000F5F1F4F892B09F0C1CFC4CFCF93C82FA0
:100B500081EB91E00E94DC0780917A008F7780938F
:100B60007A0090916000CF3FB1F0C3FD02C088E0F1
:100B700001C088E2C770C82B88E10FB6F894A89529
:100B8000809360000FBEC09360008091600080651C
:100B9000809360000BC00FB6F894A8958091600018
:100BA000886180936000109260000FBE83B7817FE0
:100BB000846083BFF89483B7816083BF85B7806604
:100BC00085BF8F7D85BF7894889583B78E7F83BFDF
:100BD000F894A8958091600088618093600090935C
:100BE0006000789480917A00806880937A00CF9139
:100BF00008958F929F92AF92BF92CF92DF92EF9221
:100C0000FF92CF93DF936B017C012FE0C20ED11CCA
:100C1000E11CF11CC1E0D0E080911F018F3FF9F48D
:100C200080E1C816D104E104F104C8F089E094E041
:100C3000980F4E0102C0880C991C9A95E2F7A12CDE
:100C4000B12CC814D904EA04FB0438F00E94A605AC
:100C5000C818D908EA08FB08DFCF8150E8CFDF9138
:100C6000CF91FF90EF90DF90CF90BF90AF909F908B
:100C70008F9008958F929F92AF92BF92DF92EF92E2
:100C8000FF920F931F93CF93DF93D82FC42FD22EB1
:100C900047015801F89480930101409300018F3F70
:100CA00079F081E090E00D2E01C0880F0A94EAF7F8
:100CB0008CBB462F50E063EA71E08D2F0E94C50A7D
:100CC000CF3F79F081E090E00C2E01C0880F0A94AC
:100CD000EAF78CBB4D2D50E063EB71E08C2F0E9446
:100CE000C50A81149104A104B10429F0C501B4011D
:100CF0000E94F90503C08FEF0E94A605DF3F19F09F
:100D00008D2F0E94B30ACF3F19F08C2F0E94B30A97
:100D100080911F018F3F19F080911F0101C08FEF5B
:100D20009FEF90931F01DF91CF911F910F91FF9043
:100D3000EF90DF90BF90AF909F908F9008951F929B
:100D40000F920FB60F9211240F900FBE0F901F90AD
:100D50001895833081F028F4813099F08230A1F029
:100D600008958730A9F08830B9F08430D1F48091AB
:100D700080008F7D03C0809180008F7780938000FA
:100D8000089584B58F7702C084B58F7D84BD0895A2
:100D90008091B0008F7703C08091B0008F7D8093E9
:100DA000B00008953FB7F89480916603909167036F
:100DB000A0916803B091690326B5A89B05C02F3F99
:100DC00019F00196A11DB11D3FBFBA2FA92F982F71
:100DD0008827820F911DA11DB11DBC01CD0143E0EB
:100DE000660F771F881F991F4A95D1F708950895B8
:100DF000CF92DF92EF92FF920F931F93CF93DF93E7
:100E00006C017A018B01C0E0D0E0CE15DF0581F0E6
:100E1000D8016D918D01D601ED91FC910190F08189
:100E2000E02DC6010995892B11F02196EECF7E01A8
:100E3000C701DF91CF911F910F91FF90EF90DF904D
:100E4000CF900895089580E090E00895FC01538DBF
:100E5000448D252F30E0842F90E0821B930B541794
:100E600010F0CF96089501970895FC01918D828D21
:100E7000981761F0828DDF01A80FB11D5D968C91EE
:100E8000928D9F5F9F73928F90E008958FEF9FEFF9
:100E90000895FC01918D828D981731F0828DE80FB5
:100EA000F11D858D90E008958FEF9FEF0895FC016F
:100EB000918D228D892F90E0805C9F4F821B91093C
:100EC0008F739927089581EB91E00E94570721E0E5
:100ED000892B09F420E0822F0895FC01848DDF0125
:100EE000A80FB11DA35ABF4F2C91848D90E001969D
:100EF0008F739927848FA689B7892C93A089B1898C
:100F00008C91837080648C93938D848D981306C02C
:100F10000288F389E02D80818F7D80830895EF9290
:100F2000FF920F931F93CF93DF93EC0181E0888FA3
:100F30009B8D8C8D981305C0E889F989808185FD8A
:100F400026C0F62E0B8D10E00F5F1F4F0F73112779
:100F5000E02E8C8DE8120CC00FB607FCFACFE889A2
:100F6000F989808185FFF5CFCE010E946D07F1CF11
:100F70008B8DFE01E80FF11DE35AFF4FF0829FB702
:100F8000F8940B8FEA89FB89808180620AC09FB741
:100F9000F894EE89FF896083E889F98980818370FC
:100FA000806480839FBF81E090E0DF91CF911F91AB
:100FB0000F91FF90EF900895CF93DF93EC01888D10
:100FC0008823C9F0EA89FB89808185FD05C0A8894D
:100FD000B9898C9186FD0FC00FB607FCF5CF8081D3
:100FE00085FFF2CFA889B9898C9185FFEDCFCE011D
:100FF0000E946D07E7CFDF91CF91089580E090E0E8
:10100000892B29F00E94630781110C940000089538
:101010000E9422230F931F93EFE1F3E09091AD0123
:10102000918382836683258384814770807F482BE8
:1010300088E0089F80011124042B0F7E0483CF01D8
:101040001F910F910895E1EBF1E0A089B18982E051
:101050008C93A485B5851C92A685B78588E08C9372
:10106000108EA489B58986E08C93A289B3898C916E
:1010700080618C93A289B3898C9188608C93A289BA
:10108000B3898C9180688C930288F389E02D8081EC
:101090008F7D80830895DF92EF92FF920F931F93CD
:1010A000CF93DF93D82EC091D502D091D602009174
:1010B000D7021091D802000F111F0C0F1D1F0C1723
:1010C0001D0751F0E990F9906D2DC7010E946F172F
:1010D000892BA9F3C70102C080E090E0DF91CF9196
:1010E0001F910F91FF90EF90DF900895CF93C1E093
:1010F0008C2F0E944B08009749F06C2F0E946F17AD
:10110000892B21F0CF5FCF3F99F7CEEF8C2FCF9176
:101110000895DC0112962D913C9113971216130637
:1011200014F420E030E0220F331FDC01ED91FC913C
:10113000E20FF31F808191810895609108037091FF
:1011400009036115710521F080E090E00C94EA0D2F
:101150000895CF93DF938093E7026093E602C0E0A7
:10116000D0E08091E00290E0C817D907F4F49091A4
:10117000DF028091AD018093E2028091E502807FE1
:10118000282F216038E0939FC0011124822B809387
:10119000E5028091AC0180FF04C081EE92E00E94E4
:1011A0001E040E949D082196DCCFDF91CF91089507
:1011B000CF92EF920F932091DD023091DE02213029
:1011C000310521F420910603211105C00F91EF9004
:1011D000CF900C94EA0D693C710581059105B0F33F
:1011E000CC24CA94EE24EA940FEF2FEF40E00E9443
:1011F000140E0F91EF90CF900895CF93DF93282F87
:1012000030E0F901E254FF4F8491F901E655FF4FB8
:10121000D491F901EA56FF4FC491CC2391F081118A
:101220000E94A906EC2FF0E0EE0FFF1FE457FF4FDE
:10123000A591B491EC91ED2381E090E021F480E060
:1012400002C080E090E0DF91CF9108951F93CF938B
:10125000DF93282F30E0F901E254FF4F8491F90128
:10126000E655FF4FD491F901EA56FF4FC491CC23C4
:10127000C1F0162F81110E94A906EC2FF0E0EE0FAD
:10128000FF1FEE57FF4FA591B4919FB7F89411112E
:1012900004C08C91D095D82302C0EC91DE2BDC9356
:1012A0009FBFDF91CF911F910895CF93DF9390E07F
:1012B000FC01E655FF4F2491FC01EA56FF4F849153
:1012C000882361F190E0880F991FFC01E858FF4FD7
:1012D000C591D491FC01EE57FF4FA591B4916111D6
:1012E00009C09FB7F8948881209582238883EC9168
:1012F0002E230BC0623061F49FB7F8948881322F9F
:10130000309583238883EC912E2B2C939FBF06C0AE
:101310008FB7F894E8812E2B28838FBFDF91CF9170
:1013200008958F929F92AF92BF92CF92DF92EF92E9
:10133000FF926B017C010E94D2064B015C01C1143B
:10134000D104E104F104F1F00E94D206DC01CB01EA
:1013500088199909AA09BB09883E9340A105B105DE
:1013600070F321E0C21AD108E108F10888EE880E76
:1013700083E0981EA11CB11CC114D104E104F10446
:1013800019F7DDCFFF90EF90DF90CF90BF90AF9037
:101390009F908F9008952FB7F89460916203709199
:1013A000630380916403909165032FBF0895CF92EA
:1013B000DF92EF92FF92CF93DF93D82F0E94CB0959
:1013C0006B017C0181E0D11180E080934503C0E096
:1013D0000E94CB09DC01CB018C199D09AE09BF0924
:1013E000803D9740A105B10590F4C11110C0A895AA
:1013F0000E9420020E941A02809144038770833069
:1014000039F7C1E0809145038D13E1CFE1CF8C2FF7
:10141000DF91CF91FF90EF90DF90CF9008951F92D2
:101420000F920FB60F9211242F933F938F939F9398
:10143000AF93BF938091620390916303A091640383
:10144000B09165033091610326E0230F2D3720F41E
:101450000296A11DB11D05C029E8230F0396A11D09
:10146000B11D209361038093620390936303A09363
:101470006403B09365038091660390916703A09124
:101480006803B09169030196A11DB11D80936603A5
:1014900090936703A0936803B0936903BF91AF91E2
:1014A0009F918F913F912F910F900FBE0F901F90A2
:1014B0001895E9E6F0E02081237F880F991F880FB7
:1014C000991F822B8083E99A08951F920F920FB67D
:1014D0000F9211242F933F934F935F936F937F93BA
:1014E0008F939F93AF93BF93EF93FF93E0911D0171
:1014F000F0911E010995FF91EF91BF91AF919F91DE
:101500008F917F916F915F914F913F912F910F90AC
:101510000FBE0F901F9018951F920F920FB60F924B
:1015200011242F933F934F935F936F937F938F93E8
:101530009F93AF93BF93EF93FF93E0911B01F091C3
:101540001C010995FF91EF91BF91AF919F918F91F0
:101550007F916F915F914F913F912F910F900FBEAF
:101560000F901F901895823078F4813011F0E89830
:1015700001C0E998E82FF0E0EE0FFF1FE55EFE4F97
:1015800087EF96E0918380830895952F8230A8F4A9
:10159000E82FF0E0EE0FFF1FE55EFE4F71836083E2
:1015A000813041F0809169008C7F482B4093690025
:1015B000E89A0895842F0C94590A08951F920F9267
:1015C0000FB60F9211242F933F934F935F936F9316
:1015D0007F938F939F93AF93BF93EF93FF9381EB91
:1015E00091E00E946D07FF91EF91BF91AF919F91A4
:1015F0008F917F916F915F914F913F912F910F90BC
:101600000FBE0F901F9018951F920F920FB60F925A
:1016100011242F938F939F93EF93FF93E091C10138
:10162000F091C2018081E091C701F091C80182FD73
:1016300012C090818091CA018F5F8F732091CB017E
:10164000821751F0E091CA01F0E0EF54FE4F958F00
:101650008093CA0101C08081FF91EF919F918F918A
:101660002F910F900FBE0F901F9018950F93CF934F
:10167000DF938F3F11F0EA0102C0C2E9D1E0022FEF
:10168000262F40E0682F80E00E940A08BE010E94D9
:10169000CF01DF91CF910F910C941E04AF92BF92B6
:1016A000CF92DF92EF92FF920F931F93CF93DF932E
:1016B00088EB91E09F938F930E9429050E949D08DB
:1016C00000E02BE043E06FEF80E00E940A0868E949
:1016D00071E00E94CF010E941E042CE043E06FEFF6
:1016E00080E00E940A0865EA71E00E94CF010E9432
:1016F0001E040E949D080091D5021091D6020F9001
:101700000F904EE9A42E41E0B42E8091D702909123
:10171000D802880F991F2091D5023091D602820FEE
:10172000931F08171907E1F1F801C190D1908F01BB
:10173000F601E280F380F60184819581880F991F7C
:1017400022813381820F931FE816F90631F1F701E8
:10175000C191D1917F018E811F928F938D811F92B4
:101760008F938C811F928F9388858F938F818F9316
:10177000BF92AF920E9429054F8158852091DF02C8
:101780006D818C810E94360B8DB79EB70A960FB67D
:10179000F8949EBF0FBE8DBFCECF0E949D08B5CFDF
:1017A0000E949D080E949D08DF91CF911F910F918B
:1017B000FF90EF90DF90CF90BF90AF900C949D087A
:1017C000CF93DF93EEE4F2E081E594E195A384A367
:1017D00081E0848F82E0878B88EE93E0A0E0B0E028
:1017E00080937C0390937D03A0937E03B0937F034B
:1017F000C5EDD2E088E592E0A0E0B0E08DAB9EAB15
:10180000AFABB8AFE091BD02F091BE0281E090E0D5
:10181000918380838CE291E0A0E0B0E082839383A7
:10182000A483B58389AD1F928F9383E391E09F9347
:101830008F930E94290561E089AD0E94550961E0FE
:1018400089AD0E94260986E291E09F938F930E94C2
:1018500029050F900F900F900F900F900F90DF9130
:10186000CF910895CF92DF92EF92FF920F931F9343
:10187000CF93DF9300D0CDB7DEB762E082E00E9465
:1018800055098091DB02882321F08091AB01809380
:10189000DC028091DC021F928F938091AD011F9238
:1018A0008F938BE891E09F938F930E942905E0909E
:1018B000D502F090D6020F900F900F900F900F90DE
:1018C0000F90CC24C394D12C8091D7029091D80250
:1018D000880F991F2091D5023091D602820F931F55
:1018E000E816F90609F466C0D7010D911D917D0136
:1018F000D8015296ED91FC91539780819181892B6B
:1019000071F4D182C08280910A0390910B03A0915F
:101910000C03B0910D0382839383A483B583D80114
:1019200054962D913C915597D9018D919C91119789
:10193000892B69F4808191818D939C93428153819D
:1019400064817581F9014283538364837583D8016F
:10195000ED91FC910190F081E02DC8010995F8010D
:10196000828993890E94D513D80154968D919C91B8
:1019700055970E94D513F80187898F3F81F0928592
:10198000968B248D933029F48093160320931803AB
:1019900006C0923021F48093170320931903D801D5
:1019A0005E96ED91FC915F97309709F48DCFC80159
:1019B00009958ACF80910703833039F482E08093C0
:1019C000160381E08093180307C0823029F48093C6
:1019D000170381E080931903809116038F3F79F1FB
:1019E00060E083E00E9455096091180367FD03C021
:1019F00083E00E9426098091DD029091DE0201972A
:101A000059F0809116032AE138E130931E012093AA
:101A10001D0190E00E94590A809116031F928F9336
:101A20001F9283E08F938BE591E09F938F930E94A9
:101A300029050F900F900F900F900F900F908091AD
:101A400017038F3F61F160E082E00E9455096091C9
:101A5000190367FD03C082E00E9426098091DD0220
:101A60009091DE02019741F04091170350E067E149
:101A700078E180E00E94C50A809117031F928F933E
:101A80001F9282E08F9385E491E09F938F930E9451
:101A900029050F900F900F900F900F900F9080914D
:101AA000800390918103009711F484E893E08E0104
:101AB0000F5F1F4F081B190BF894309160002091A5
:101AC0008000909182008FEF86BB1092850010926B
:101AD000840010928000109282004DE088E10FB6E1
:101AE000F894A895809360000FBE409360008091A9
:101AF0006000806480936000A89585E080938100F9
:101B00008091600087FFFCCF10928100A8958091A2
:101B10006000886180936000309360007894209327
:101B20008000909382006091840070918500CB01C9
:101B3000A0E0B0E0BC01CD012BE0660F771F881F4D
:101B4000991F2A95D1F720EA36E841E050E00E943B
:101B5000E021C9016AE070E00E94B821F62EE72E6C
:101B60008EE480937C0066E470E080E090E00E9468
:101B7000910980917A00806480937A0080917A0044
:101B800086FDFCCF20917800309179001F930F9350
:101B9000EF92FF9240E050E064EB7BE281E190E065
:101BA0000E94E0213F932F9381E791E09F938F93D1
:101BB0000E9429050FB6F894DEBF0FBECDBF0F906F
:101BC0000F90DF91CF911F910F91FF90EF90DF90D9
:101BD000CF9008958F929F92AF92BF92CF92DF9253
:101BE000EF92FF924B015C010E94CB096B017C01DB
:101BF0000E94CB09DC01CB018C199D09AE09BF09FC
:101C000088159905AA05BB0530F4A8950E94200205
:101C10000E941A02EDCFFF90EF90DF90CF90BF901F
:101C2000AF909F908F9008953F924F925F926F92E6
:101C30007F928F929F92AF92BF92CF92DF92EF925C
:101C4000FF920F931F93CF93DF932B013C01D42E70
:101C5000C22F302EDE2D8091750382FD1FC00E94A1
:101C6000CB094B015C0180E090E0DC012091750321
:101C700022FDA2C084159505A605B70508F0A2C0EF
:101C8000803127E29207A105B10508F487C053010E
:101C90004201881A990AAA0ABB0A02C053014201EA
:101CA000DD2081F1D501C4010197A109B109833F6C
:101CB0009140A105B10528F4C301B2010E94EA0DCB
:101CC00081C000E020E243E06FEF80E00E940A085C
:101CD000FC0184818F71806A848383818770806234
:101CE000838384EF91E0A0E0B0E087839087A187B1
:101CF000B287CF010E941E0464EF71E080E090E0A3
:101D00000E94EA0D0E944A03CF3F79F085017401D9
:101D1000DF3F19F02C2D4D2F02C020E04FEF632D37
:101D20008C2F0E943A06C82F1CC0DF3FC9F48114D3
:101D30009104A104B10429F0C501B4010E94F90580
:101D400003C08FEF0E94A60580911F018F3F19F0FD
:101D5000C0911F0101C0CFEF8FEF80931F0101C021
:101D6000CEEF0E944003DD20B9F000E021E243E025
:101D70006FEF80E00E940A08FC0184818F71806A05
:101D80008483838187708062838387829086A18623
:101D9000B286CF010E941E048C2F15C0A8950E9408
:101DA00020020E941A020E94CB09DC01CB01881993
:101DB0009909AA09BB095ACF84159505A605B70547
:101DC00008F465CF8EEFDF91CF911F910F91FF90B7
:101DD000EF90DF90CF90BF90AF909F908F907F90CB
:101DE0006F905F904F903F900895AF92BF92CF92C7
:101DF000EF92FF920F931F93CF93DF9300910F0306
:101E000010911003E0911103F0911203EE0FFF1FE8
:101E10005F01A00EB11EC091DD02D091DE022091C3
:101E20000203309103034091040350910503A8EE8F
:101E3000B3E00E946721A801A416B506F1F0FA01EB
:101E4000A191B191AF012D913C91119721303105B4
:101E500099F7C130D10581F716960D911D912D91FD
:101E60003C911997061B170B280B390B16960D93EF
:101E70001D932D933C931997DFCF0091D5021091BC
:101E8000D602FF24FA948091D7029091D802880F4D
:101E9000991F2091D5023091D602820F931F081707
:101EA0001907B1F0F801C191D1918F0181EE92E053
:101EB0000E940502809126018F3F21F09E8989139F
:101EC000E2CF0EC060E070E0CE010E94D215DBCF01
:101ED0008091DD029091DE02019709F0C3C031C00C
:101EE0008D8D882371F08F89833029F480916A0366
:101EF000813021F506C0823021F480916A0381117E
:101F00001DC0E881F9810680F781E02DCE01099599
:101F1000688D798D8A8D9B8D61157105810591057F
:101F200011F00E94D808ECA1FDA1309711F0CE016C
:101F3000099560E070E0CE010E94D215F092260172
:101F4000A2CFF090020310910303D0910403C0913B
:101F50000503CF93DF931F93FF9281ED91E09F9351
:101F60008F930E942905009116030F900F900F90F8
:101F70000F900F900F900F3F49F4AA24AA94B12C10
:101F8000E0911703EF3F09F042C004C0AA24A394D4
:101F9000B12CF6CFFFEFAF16B10409F450C0A8EE94
:101FA000B3E02F2D312F4D2F5C2F0E946721CC24C1
:101FB000CA94EE24EA942A2D40911A030E94140E2A
:101FC000082E000C990B97FD19C08130910511F472
:101FD00083E003C0892B19F482E00E94B31720919B
:101FE000070330E080912601082E000C990B28177A
:101FF000390721F41092DE021092DD0283EC91E0A9
:102000009F938F930E9429050F900F902BC0A8EEED
:10201000B3E02F2D312F4D2F5C2F8FEFA816B10479
:1020200029F00E946721CE2EE12CC5CF0E946721A6
:10203000CC24CA94EE24EA940E2F20E0BDCFA8EE63
:10204000B3E02F2D312F4D2F5C2F0E946721CC2420
:10205000CA94EE24EA940FEF2FEF40911A030E94E6
:10206000140ECCCFDF91CF911F910F91FF90EF9085
:10207000CF90BF90AF9008950F93CF9300E02FE0E3
:1020800043E06FEF80E00E940A0868EA71E00E9476
:10209000CF01EFE1F3E083818770806183838481E6
:1020A0008F71806C848381E087831086CF010E94CA
:1020B0001E048FE00E94D70920E048EA51E061E168
:1020C0008FEF0E94360BC091AE0126E043E06FEF28
:1020D00080E00E940A086C2F0E94C3010E941E0427
:1020E00086E00E94D709CF910F910C944E0B0F936D
:1020F000CF938091AC0181FD20C00E943C10809163
:10210000AC0181608093AC01C4E000E02AE143E0CF
:102110006FEF80E00E940A0862E00E94C3010E9403
:102120001E048BE10E94D709811102C0C15069F7DA
:102130008091AC0182608093AC01CF910F910895A2
:10214000FC0180819181009711F00C946E1C089520
:10215000CF93DF93EB01DC019896ED91FC91999779
:10216000E730F10520F4EC5CFF4F0C94022260E0B4
:1021700070E03AC088E00E9475038F7063EE7FEFD5
:10218000B8E08B9F6019710911242EC086E00E946F
:102190007503282F30E035952795209530952370CD
:1021A00033274AEF4203B001439F700D11241CC036
:1021B00086E00E94750390E09595879595958795A3
:1021C0008370992769E1689F600D112470E00CC04D
:1021D000609178037091790384E0759567958A958D
:1021E000E1F702C060E07FEFCE01DF91CF910C9468
:1021F000E314CF93DF93EC0102960E9489089C01BF
:1022000060916A03062E000C770B88A5882331F0B5
:1022100091E0672B09F090E0692F70E0C901DF9130
:10222000CF910C94E314CF93DF93EC0102960E94BC
:102230008908FC0115861486EA89FB8982E090E012
:1022400091838083DF91CF910895EF92FF920F9356
:102250001F93CF93DF937C01EB016E810E946F1778
:102260008C01892BA9F08C818770823089F48D8153
:10227000823071F4F70182850E94FD08BC01C8011B
:10228000DF91CF911F910F91FF90EF900C94E31489
:10229000DF91CF911F910F91FF90EF900895FF92E2
:1022A0000F931F93CF93DF938C01EB01FC01828589
:1022B000082E000C990B22A512162CF4209719F465
:1022C000822F220F990BF80127A530A912161306A9
:1022D00014F4C1E0D0E0F80121A9222331F021E07B
:1022E000CD2B09F020E0C22FD0E0F82E6C2F0E94F9
:1022F0002609F80167A570A91616170694F4072E8B
:10230000000C880B990B0E94D80861E0CD2B09F0D6
:1023100060E08F2DDF91CF911F910F91FF900C9472
:102320002609DF91CF911F910F91FF900895CF93D0
:10233000C82F8093AD018F3F51F08093200163E05F
:1023400082E20E942F0361E081E20E942F030E943B
:1023500068036C2F80E090E00E94552181E0CF91CE
:1023600008954F925F926F927F928F929F92AF9259
:10237000BF92CF92DF92EF92FF920F931F93CF9372
:10238000DF93D6E0E0E0EE2EE0E0FE2E88248A9493
:1023900099249394F3E0AF2EF2E0BF2EC12CDD24FC
:1023A000DA9487E10E94750380FDB1C1D15009F430
:1023B000AEC121E041E060E070E080E60E94FE02F4
:1023C000C82F813220F082EE0E947B03C0E021E022
:1023D0004C2F60E473E081E60E94FE0260E487E235
:1023E0000E942F0330914303832F8695869586950F
:1023F0008A3108F089E132FD03C097E0980F01C0EF
:1024000090E29C13CECF932F9370923051F620918F
:102410004403022F0770C09145031091410390912E
:1024200040036091420340917603406840937603F5
:102430004091AD01641342C090E03770AC0173E08D
:10244000440F551F7A95E1F7342B30934303FC0179
:10245000E05CFC4F178223FF15C081E2E0E4F3E06B
:10246000AFE1B3E001900D928A95E1F7277F2061FB
:102470002093230360932003109321038FE193E0C3
:102480000E941E049091440394FD13C0033089F40C
:102490008091450321EF280F233008F040C081CF01
:1024A000813009F411C18A3009F47BCF8C3109F4F1
:1024B00078CF80E493E00E946E0173CF6F3F09F004
:1024C00070CF033039F58091750382FF03C0C730A8
:1024D00009F467CFC83009F464CFC43109F061CF83
:1024E0008091AE0198135DCF0E94CB09737088274D
:1024F00099270E949109C091AE0100E025E143E0D7
:102500006FEF812F0E940A086C2F0E94C3010E9466
:10251000E60347CF8091AE01981343CFCACFC430B2
:10252000B1F48091460390912101891719F08F3FF2
:1025300009F037CF0E94241A9FEF980F9E3F18F49E
:102540000E9497112ECF8FEF8093AD012ACFC83014
:10255000C9F4C0917503C0FF24CF0E94241A8F3F95
:1025600009F41FCF8F5F8F3F09F41BCF9091AF010C
:10257000891708F016CFC1FD14CF8093AF011093D7
:10258000AE010FCFC83149F400E029E143E06FEF1D
:10259000812F0E940A0861E0B8CFC93161F48091AF
:1025A000750383FFFECE877F809375030E94241AF4
:1025B00080937703F6CECE3109F4F3CECD31A1F47A
:1025C00000E02FE143E06FEF80E00E940A08FC0189
:1025D00084818F7180648483838187708061838329
:1025E000D086C782CF0193CF2091410321118BC0A8
:1025F0008D3059F498E088E10FB6F894A89580934F
:1026000060000FBE90936000FFCF8B3169F40E9491
:10261000241A91E0811101C090E08091AC0190FBFF
:1026200080F98093AC01BDCE863099F49091470338
:1026300081E0992319F09D3409F080E08093AB018B
:1026400041E050E063E071E08BEA91E00E944521B7
:10265000A8CE833119F40E943C10A3CE8231C9F474
:102660000E942B022B013C0100E026E143E06FEFCA
:1026700080E00E940A08FC0184818F71806A848353
:1026800083818770806283834782508661867286E9
:1026900017C0823009F004CF00E022E043E06FEF82
:1026A00080E00E940A08FC0184818F71806A848323
:1026B000838187708062838387829086A186B286B9
:1026C000CF010E941E046DCEE114F10409F469CE1D
:1026D000929596959770953049F460914703709163
:1026E00048038091490390914A030AC0911105C0A3
:1026F00087E493E00E94151D03C060E070E0CB0109
:102700000E9400004ECE8A3109F0D3CE4ACEDF912E
:10271000CF911F910F91FF90EF90DF90CF90BF90DE
:10272000AF909F908F907F906F905F904F900895A3
:10273000CF92DF92EF92FF92CF93DF93FC01208143
:1027400031812330310541F12115310529F1223044
:10275000310501F14285442301F121303105E1F4D5
:10276000EC01C680D780E084F1840E94CB09C61AB0
:10277000D70AE80AF90A2A813B814C815D81A8EEDB
:10278000B3E00E94672141E0C616D706E806F906C5
:1027900020F402C041E001C040E0842FDF91CF91DE
:1027A000FF90EF90DF90CF900895CF92DF92EF925D
:1027B000FF92CF93DF93EC010E94CB096B017C0168
:1027C0002A813B814C815D81A8EEB3E00E946721A4
:1027D000C60ED71EE81EF91ECE82DF82E886F98675
:1027E00081E08A87DF91CF91FF90EF90DF90CF90CB
:1027F00008950F931F93CF93DF93EC018B018CA56A
:102800008823E1F08AA99BA96115710519F4FC01DF
:1028100012861FC02CE3269FA001279F500D112474
:10282000052E000C660B770BFC01428353836483F7
:1028300075830E94D51301E010E00BC06130710573
:1028400041F48AA99BA9FC01208131812130310505
:1028500001F1E881F9810084F185E02DB801CE0114
:10286000099519A708A7CE0102960E948908B80108
:102870000E94E3146DA57EA5161617066CF4072EAC
:10288000000C880B990BDF91CF911F910F910C9445
:10289000D8080E94D513DDCFDF91CF911F910F9102
:1028A000089561E070E080919F029091A002892BD1
:1028B00011F060E070E087E792E00C94F913EF927A
:1028C000FF920F931F93CF93DF93EC018B01FB01DA
:1028D00066810E946F177C01892BC1F1F801848108
:1028E000982F9770913021F49BA591111CC005C0C1
:1028F0009230C9F49BA59923B1F082958695877093
:10290000823021F4F8018781908509C0811105C0CA
:10291000C80107960E94F71C02C080E090E0BC014D
:10292000CE010E94F913F80184818770823071F41E
:102930008BA581110BC068A579A5C701DF91CF9147
:102940001F910F91FF90EF900C94E314DF91CF91C2
:102950001F910F91FF90EF900895CF93DF93EC01BB
:102960008AA99BA90E949813882341F060E070E037
:10297000CE010E94F913EAA9FBA91286DF91CF913B
:102980000895CF93DF93EC0102960E948908FC0121
:102990001586148661E08A850E9455098AA5181655
:1029A0001CF461E00E945509EA89FB8982E090E00D
:1029B0009183808360E070E0CE01DF91CF910C9431
:1029C000F91308950895CF92DF92EF92FF920F933B
:1029D0001F93CF93DF93EC01072E000C880B990B0C
:1029E0000E9418206B017C019B01AC010E941D23F9
:1029F0008111CFC00C851D850115110561F0A7015E
:102A000096016C897D898E899F890E9409226C8B31
:102A10007D8B8E8B9F8B69857A856F5F7F4F7A87E1
:102A200069870130110589F480E090E00E9416204A
:102A30009B01AC016C897D898E899F890E947522DA
:102A40006E877F87888B998B12C00230110549F4FD
:102A50008C899D89AE89BF898E879F87A88BB98B0A
:102A600006C0012B21F4CE86DF86E88AF98A8A81A6
:102A70009B81892B01F56E857F85888999890E94C4
:102A8000E7227F936F938E811F928F938C811F9289
:102A90008F9388858F938F818F9382E492E09F93A9
:102AA0008F930E9429058DB79EB70A960FB6F894AA
:102AB0009EBF0FBE8DBF8A819B81019799F5CE8401
:102AC000DF84E888F98820E030E048EC52E4C70170
:102AD000B6010E9477200E94E722CB0164E670E0F5
:102AE0000E94CC219F938F93C701B6010E94E722D9
:102AF0007F936F938E811F928F938C811F928F9300
:102B000088858F938F818F938FE192E09F938F932E
:102B10000E9429058DB79EB70C960FB6F8949EBFFC
:102B20000FBE8DBF8A819B81029799F5CE84DF8489
:102B3000E888F98820E030E44CE156E4C701B601AA
:102B40000E9477200E94E722CB0160E177E20E9499
:102B5000CC219F938F93C701B6010E94E7227F93F8
:102B60006F938E811F928F938C811F928F93888594
:102B70008F938F818F938CEF91E09F938F930E941F
:102B800029058DB79EB70C960FB6F8949EBF0FBE61
:102B90008DBFDF91CF911F910F91FF90EF90DF904C
:102BA000CF9008953F924F925F926F927F928F9253
:102BB0009F92AF92BF92CF92DF92EF92FF920F93CC
:102BC0001F93CF93DF938C017B01DC0154968D9191
:102BD0009C9155970E949813811105C0F801818935
:102BE000882309F461C1D8019096ED91FC919197E9
:102BF000309711F0C8010995F801C281D381D8013D
:102C000014968D919C911597880F991F12962D916E
:102C10003C911397820F931FC817D907B9F1A99058
:102C2000B990E114F10439F0F7019681D5011496B9
:102C30008C919813E4CFC12CD12CF8018385948515
:102C4000C816D906E0F60190F081E02DE114F104F8
:102C500029F00480F581E02DB70104C00280F381E2
:102C6000E02DB501C8010995D8011D966D917D91A2
:102C70008D919C915097611571058105910511F019
:102C80000E94D808BFEFCB1ADB0AD7CFD8019296A3
:102C9000ED91FC919397309711F0C8010995F801D7
:102CA000848995890E949813882339F0D801549615
:102CB0008D919C9155970E94D513F8018289938933
:102CC0000E949813811106C0D80151968C918823D7
:102CD00009F4EFC0F801C280D38038EA632E31E0F6
:102CE000732ED80114968D919C911597880F991F7A
:102CF00012962D913C911397820F931FC816D906F7
:102D000009F4BEC0F601C191D1916F01E114F10443
:102D100039F0D70116969C918C819813E2CF07C0A9
:102D2000888D811104C089859A85892BD1F28A8189
:102D30009B81892B51F56E857F85888999890E94B1
:102D4000E7224B015C014E805C8081EE92E00E94A4
:102D500005028091E5028F7180688093E502809181
:102D6000E402877080628093E402092C000CAA08B8
:102D7000BB088092E8029092E902A092EA02B09227
:102D8000EB02642D852D0E94A9088A819B81019701
:102D900021F53B848E849F84A888B9884E805C800E
:102DA00081EE92E00E9405028091E40287708862C1
:102DB0008093E4028091E502806E8093E502809228
:102DC000E8029092E902A092EA02B092EB023092FD
:102DD000EC02642D852D0E94A9088A819B810297AF
:102DE00021F53B848E849F84A888B9884E805C80BE
:102DF00081EE92E00E9405028091E4028770886271
:102E00008093E4028091E502806E8093E5028092D7
:102E1000E8029092E902A092EA02B092EB023092AC
:102E2000EC02642D852D0E94A9088A819B8103975D
:102E300089F4AA88BB888E809C8081EE92E00E94F3
:102E40000502B50181EE92E00E94CF01682D892D27
:102E50000E94A9088A819B81039769F08C859D85D2
:102E6000892B59F01C8A1D8A1E8A1F8A1E861F867E
:102E7000188A198A02C07B8A6A8A1A86198631CF13
:102E8000F801828993890E949813882339F0D80128
:102E900052968D919C9153970E94D513F801818988
:102EA000882359F0118A09C0E114F10409F09BCE7E
:102EB00004CFE114F10409F00DCFDF91CF911F9100
:102EC0000F91FF90EF90DF90CF90BF90AF909F90C9
:102ED0008F907F906F905F904F903F900895DC01AE
:102EE0001296ED91FC91139714968D919C911597E4
:102EF000880F991F8E0F9F1F8E179F0749F0A19172
:102F0000B19114962C9114976213F6CFCD010895C8
:102F100080E090E008950F931F93CF93DF93EC012F
:102F20008B01FB0166810E946F170097B9F0F801D1
:102F300024812770223091F4FC013681F80125812B
:102F400032130CC0E881F9810280F381E02DBC01CD
:102F5000CE01DF91CF911F910F910994DF91CF9115
:102F60001F910F910895CF92DF92EF92FF920F93EE
:102F70001F93CF93C82FC0907C03D0907D03E09027
:102F80007E03F0907F03C114D104E104F10441F108
:102F90000E94CB0900911B0310911C0320911D037B
:102FA00030911E03DC01CB01801B910BA20BB30BF4
:102FB0008C159D05AE05BF0598F4809126018C13F4
:102FC0000FC00E94CB0900911B0310911C0320919C
:102FD0001D0330911E030617170728073907F8F05D
:102FE000C09326018C2F0E94FD0880936A03282F2E
:102FF000082E000C330B3F938F938C2F0C2E000C5C
:10300000990B9F93CF9385EE91E09F938F930E94AE
:1030100029050F900F900F900F900F900F90CF9168
:103020001F910F91FF90EF90DF90CF90089582E075
:103030000C94B31783E00C94B3177F928F929F92F6
:10304000AF92BF92CF92DF92EF92FF920F931F93B6
:10305000CF93DF93CDB7DEB7A1970FB6F894DEBF5D
:103060000FBECDBFE1EBF1E01382128288EE93E058
:10307000A0E0B0E084839583A683B78381E391E0E9
:103080009183808385EC90E09587848784EC90E041
:103090009787868780EC90E0918B808B81EC90E025
:1030A000938B828B82EC90E0958B848B86EC90E006
:1030B000978B868B118E128E138E148E80E493E084
:1030C0000E9405028FE193E00E9405020E94CB0955
:1030D00060931B0370931C0380931D0390931E0346
:1030E00005ED12E0D80111961C921E9213961C92C7
:1030F0001E92129715961C921E921497FF24F39419
:103100001696FC9216971796FC92179719961C9292
:103110001E9218971A961C921A971B96FC9281EE93
:1031200092E00E940502F80115A616A617A610AA9D
:10313000F1AAEE24EA94E2AA14AA13AA88E592E07E
:10314000A0E0B0E085AB96ABA7ABB0AFE1AE13AEFD
:1031500012AE15AE14AE17AE16AEF0921503E09295
:103160001603E0921703E0921803E0921903F0921D
:103170001A03CE0101960E94050281E2FE013196FA
:10318000A1EEB2E001900D928A95E1F70E9423082A
:1031900085E191E09F938F930E94290586EF90E04F
:1031A0009F938F930E94290582ED90E09F938F93C8
:1031B0000E9429056FEF8BEA92E00E94761B0BEAD2
:1031C00012E08DE591E0D80111969C938E9399962B
:1031D0001C921E92989781E791E019969C938E938A
:1031E000189761E070E08DEA92E00E945D1A89E133
:1031F00090E00E94D61BFC01D80118968D919C91FD
:10320000199712861186CC24C394D12CD586C486F6
:1032100016861786108A118A38EAA32E31E0B32E5B
:10322000B38AA28A148A158A168A178A108E118385
:103230000083138212822AEC248321E2258325E273
:10324000268390878783BF018DEA92E00E94931ABC
:10325000D8015296ED91FC915397D182C08280E1C2
:103260009EE0A0E0B0E082839383A483B58366E010
:1032700087E792E00E94761B07E712E08FE491E077
:10328000F8019183808311A610A6E2A613A614A6C6
:1032900016A615A610AA17A611AA8BE090E00E9408
:1032A000D61B4C01DC0111961C921E92FC0112826D
:1032B00013821482158216961D921D921D921C92E5
:1032C00019971A961C92BC018FE093E00E94931A02
:1032D000F80193AA82AA88E791E09187808761E04C
:1032E00070E089E792E00E945D1A0E947608982EAD
:1032F00089E190E00E94D61BFC01D80118968D91BF
:103300009C91199747E1742E758250E3E52EE68271
:1033100012861186D586C48616861786108A118A6B
:10332000B38AA28A148A158A168A178A108E118384
:10333000008313821282948290878783BF0189E77A
:1033400092E00E94931A8FE491E0F80191838083C8
:1033500062E8862E61E0962E9186808689E792E06B
:103360000E94890823E0DC0115962C9389E792E0FE
:103370000E94890822E0FC01268389E792E00E94EE
:103380008908DC0118969C928E92179762E08EE471
:1033900092E00E94761B0EE412E083E491E0F801D3
:1033A0009183808310A688E891E09187808761E00F
:1033B00070E080E592E00E945D1A0E947608982EE7
:1033C00089E190E00E94D61BFC01D80118968D91EE
:1033D0009C9119977582E68212861186D586C486DD
:1033E00016861786108A118AB38AA28A148A158AC9
:1033F000168A178A108E1183008313821282948298
:1034000090878783BF0180E592E00E94931AF801BC
:10341000F48EF78A0F900F900F900F900F900F90EF
:10342000A1960FB6F894DEBF0FBECDBFDF91CF914E
:103430001F910F91FF90EF90DF90CF90BF90AF90D2
:103440009F908F907F9008958091440382958695F8
:103450008770813019F4809147030895811105C068
:1034600087E493E00E94F71C089580E00895CF93CD
:10347000DF93C9E6D1E0D0934F02C0934E0280E5BE
:1034800092E00E94A010D0937802C093770289E75F
:1034900092E00E94A010D093AC02C093AB028DEAE0
:1034A00092E00E94A0108FE093E00E94A01085EDB2
:1034B00092E0DF91CF910C94A0100F931F93CF93C4
:1034C000DF93EC017D836C8361388FE3780720F410
:1034D000CB01880F991F02C08FEF9FEF0E94D61B70
:1034E0008C016A817B81FC0120E030E08881998138
:1034F000261737076CF4A901440F551FDC01A40FF0
:10350000B51F8D919C91819391932F5F3F4FEECF8B
:10351000009711F00E946E1C08831983DF91CF91F0
:103520001F910F910895CF92DF92EF92FF920F9328
:103530001F93CF93DF93EC018B01EA80FB808C819A
:103540009D81E816F90659F5C70101969D838C8384
:1035500081382FE3920718F4880F991F02C08FEF6C
:103560009FEF0E94D61B6C01FC0120E030E08881B7
:1035700099812E153F056CF4A901440F551FDC01FC
:10358000A40FB51F8D919C91819391932F5F3F4F15
:10359000EECF009711F00E946E1CC882D9828A81FA
:1035A0009B819C01220F331FE881F981E20FF31FF9
:1035B0001183008301969B838A83DF91CF911F91B2
:1035C0000F91FF90EF90DF90CF900895789484B59D
:1035D000826084BD84B5816084BD85B5826085BD0F
:1035E00085B5816085BD80916E00816080936E009D
:1035F000109281008091810082608093810080918F
:10360000810081608093810080918000816080933F
:1036100080008091B10084608093B1008091B000FF
:1036200081608093B00080917A00846080937A00FA
:1036300080917A00826080937A0080917A008E7FF8
:1036400080937A0080917A00806880937A0010924B
:10365000C100A89580E090E0892B11F00E94000045
:103660000E9423088091AC018D7F8093AC010E9461
:10367000E00B41E050E063E071E08BEA91E00E94F2
:1036800035216FEF81E090E00E9455218091760313
:103690008F788093760310926C0310926B0382E212
:1036A00091E00E943E0287E790E190937B03809334
:1036B0007A030E94CB090E94CB090E9420020E943B
:1036C0001A02A8958091750382FFF5CF0E94320CF3
:1036D000A895A8950E9420028091750384FD0E9400
:1036E000B1110E94F50E0E94FE07F3CF0F931F93B6
:1036F000CF93DF93EC0189E691E0998388831B8265
:103700001A821D821C821F821E8288EA91E099879C
:10371000888781E090E09C878B871D861E861F86A8
:10372000188A91E0998B8FEF8E8B8F8B188E198E64
:103730001A8E1B8E8C8F9D8F6A878BE090E00E9483
:10374000D61B8C01FC01118210821282138214821A
:10375000158216821782108611861286BC018FE0B0
:1037600093E00E94931A1B8B0A8B8BE090E00E94DF
:10377000D61B8C01FC0111821082128213821482EA
:10378000158216821782108611861286BC018FE080
:1037900093E00E94931A1D8B0C8BBE0185ED92E085
:1037A000DF91CF911F910F910C94931A0F931F9358
:1037B000CF93DF938230910510F482E090E0E091A6
:1037C0008203F091830320E030E0A0E0B0E0309786
:1037D00019F1408151810281138148175907C8F0BE
:1037E0008417950769F4109731F012960C9312978D
:1037F00013961C9327C0009382031093830322C067
:103800002115310519F04217530718F49A01BD012B
:10381000EF01DF01F801DBCF21153105F9F0281B9D
:10382000390B2430310580F48A819B816115710543
:1038300021F0FB019383828304C0909383038093E0
:103840008203FE01329644C0FE01E20FF31F819312
:10385000919322503109398328833AC02091800303
:1038600030918103232B41F42091290130912A01C9
:103870003093810320938003209127013091280108
:103880002115310541F42DB73EB740912B015091E0
:103890002C01241B350BE0918003F0918103E2178A
:1038A000F307A0F42E1B3F0B2817390778F0AC0163
:1038B0004E5F5F4F2417350748F04E0F5F1F509340
:1038C0008103409380038193919302C0E0E0F0E094
:1038D000CF01DF91CF911F910F910895CF93DF9387
:1038E000009709F481C0FC01329713821282A091E3
:1038F0008203B0918303109781F420813181820F7C
:10390000931F20918003309181032817390751F5C7
:10391000F0938103E093800367C0ED0120E030E085
:10392000CE17DF0740F44A815B819E0141155105A6
:10393000F1F0EA01F5CFD383C28340815181840F36
:10394000951FC817D90759F488819981840F951F4D
:103950000296918380838A819B8193838283211540
:10396000310529F4F0938303E09382033DC0E9011C
:10397000FB83EA8349915991C40FD51FEC17FD07CA
:1039800061F480819181840F951F0296E9019983EA
:103990008883828193819B838A83E0E0F0E01296A2
:1039A0008D919C911397009719F0FD01DC01F7CFE1
:1039B0008D919C9111979D012E5F3F4F820F931F18
:1039C00020918003309181032817390769F43097DB
:1039D00029F4109283031092820302C01382128290
:1039E000B0938103A0938003DF91CF910895FC01F0
:1039F00088279927E89421912032E9F3293010F0A3
:103A00002E30C8F32B3241F02D3239F4689404C0C3
:103A10000E94511D820F911D219120532A30C0F325
:103A20001EF4909581959F4F08951F93FC0199274F
:103A30008827BC01E89411911032E9F3193010F095
:103A40001E30C8F31B3251F01D3249F4689406C091
:103A50000E943C1D610F711D811D911D119110531C
:103A60001A30B0F33EF490958095709561957F4F34
:103A70008F4F9F4F1F910895592F482F372F262F73
:103A8000660F771F881F991F660F771F881F991F62
:103A9000620F731F841F951F660F771F881F991F62
:103AA00008957AE0979F902D879F802D910D112486
:103AB0000895AEE0B0E0EFE5FDE10C9480218C01CB
:103AC000FA018EE08C831A83098377FF02C060E0DD
:103AD00070E8CB0101979E838D83A901BF01CE01C0
:103AE00001960E94851D4D815E8157FD0AC02F8180
:103AF0003885421753070CF49A01F801E20FF31FBF
:103B000010822E96E4E00C949C21ABE0B0E0EBE850
:103B1000FDE10C9472216C017B018A01FC0117828A
:103B20001682838181FFCCC1CE0101963C01F60152
:103B30009381F70193FD859193FF81917F01882304
:103B400009F4BAC1853239F493FD859193FF8191CF
:103B50007F01853229F4B60190E00E947C1FE7CFF7
:103B6000912C212C312CFFE1F315D8F08B3279F018
:103B700038F4803279F08332A1F4232D20611DC006
:103B80008D3261F0803369F4232D216016C0832DBE
:103B90008260382EE32DE4603E2E2AC0F32DF860BB
:103BA0001DC037FC2DC020ED280F2A3040F08E328A
:103BB000B9F436FC81C1232D2064322E19C036FEA3
:103BC00006C08AE0989E200D1124922E11C0EAE0D2
:103BD0002E9E200D1124222EF32DF0623F2E08C0C0
:103BE0008C3621F4832D8068382E02C0883641F44B
:103BF000F70193FD859193FF81917F018111B3CFEF
:103C0000982F9F7D9554933028F40C5F1F4F9FE3AE
:103C100099830DC0833631F0833771F0833509F015
:103C200059C021C0F801808189830E5F1F4F88240D
:103C30008394912C530113C02801F2E04F0E511CC4
:103C4000F801A080B18036FE03C0692D70E002C08B
:103C50006FEF7FEFC5010E94711F4C018201F32DB0
:103C6000FF773F2E16C0280122E0420E511CF801BA
:103C7000A080B18036FE03C0692D70E002C06FEFF6
:103C80007FEFC5010E94661F4C01F32DF0683F2EA7
:103C9000820133FC1BC0822D90E088169906B0F497
:103CA000B60180E290E00E947C1F2A94F4CFF501D7
:103CB00037FC859137FE81915F01B60190E00E944B
:103CC0007C1F21102A9421E0821A9108811491040A
:103CD00071F7E8C0843611F0893641F5F80137FEF6
:103CE00007C060817181828193810C5F1F4F08C082
:103CF00060817181072E000C880B990B0E5F1F4F9E
:103D0000F32DFF763F2E97FF09C090958095709513
:103D100061957F4F8F4F9F4FF0683F2E2AE030E034
:103D2000A3010E94B81F882E861845C0853731F43C
:103D3000232D2F7EB22E2AE030E025C0932D997FCF
:103D4000B92E8F36C1F018F4883579F0B5C08037B8
:103D500019F0883721F0B0C0E92FE061BE2EB4FE23
:103D60000DC0FB2DF460BF2E09C034FE0AC0292F00
:103D70002660B22E06C028E030E005C020E130E029
:103D800002C020E132E0F801B7FE07C06081718116
:103D9000828193810C5F1F4F06C06081718180E03A
:103DA00090E00E5F1F4FA3010E94B81F882E861857
:103DB000FB2DFF773F2E36FE0DC0232D2E7FA22E2A
:103DC000891458F434FE0BC032FC09C0832D8E7E5A
:103DD000A82E05C0B82CA32C03C0B82C01C0B92C48
:103DE000A4FE0FC0FE01E80DF11D8081803321F497
:103DF0009A2D997EA92E09C0A2FE06C0B394B39451
:103E000004C08A2D867809F0B394A3FC11C0A0FEEB
:103E100006C0B21488F4280C922C9B180EC0B21461
:103E200060F4B60180E290E00E947C1FB394F7CF6B
:103E3000B21418F42B1802C0982C212CA4FE10C028
:103E4000B60180E390E00E947C1FA2FE17C0A1FC97
:103E500003C088E790E002C088E590E0B6010CC09E
:103E60008A2D867859F0A1FE02C08BE201C080E263
:103E7000A7FC8DE2B60190E00E947C1F891438F403
:103E8000B60180E390E00E947C1F9A94F7CF8A9459
:103E9000F301E80DF11D8081B60190E00E947C1FC6
:103EA0008110F5CF222009F442CEB60180E290E0E5
:103EB0000E947C1F2A94F6CFF6018681978102C06A
:103EC0008FEF9FEF2B96E2E10C948E21FC01059081
:103ED000615070400110D8F7809590958E0F9F1F0C
:103EE0000895FC016150704001900110D8F7809551
:103EF00090958E0F9F1F08950F931F93CF93DF937D
:103F0000FB01238121FD03C08FEF9FEF2CC022FF17
:103F100016C046815781248135814217530744F4E6
:103F2000A081B1819D012F5F3F4F318320838C930E
:103F3000268137812F5F3F4F3783268314C08B0143
:103F4000EC01FB010084F185E02D0995892BE1F658
:103F5000D80116968D919C911797019617969C9370
:103F60008E931697CE01DF91CF911F910F910895F7
:103F7000FA01AA27283051F1203181F1E8946F939A
:103F80006E7F6E5F7F4F8F4F9F4FAF4FB1E03ED040
:103F9000B4E03CD0670F781F891F9A1FA11D680FDE
:103FA000791F8A1F911DA11D6A0F711D811D911D11
:103FB000A11D20D009F468943F912AE0269F112486
:103FC0003019305D3193DEF6CF010895462F4770EA
:103FD000405D4193B3E00FD0C9F7F6CF462F4F7045
:103FE000405D4A3318F0495D31FD4052419302D0A3
:103FF000A9F7EACFB4E0A695979587957795679549
:10400000BA95C9F700976105710508959B01AC0148
:104010000A2E06945795479537952795BA95C9F76F
:10402000620F731F841F951FA01D0895E89409C097
:1040300097FB3EF490958095709561957F4F8F4FDB
:104040009F4F9923A9F0F92F96E9BB279395F695F1
:10405000879577956795B795F111F8CFFAF4BB0F6F
:1040600011F460FF1BC06F5F7F4F8F4F9F4F16C0D3
:10407000882311F096E911C0772321F09EE8872F5D
:10408000762F05C0662371F096E8862F70E060E019
:104090002AF09A95660F771F881FDAF7880F969592
:1040A000879597F90895990F0008550FAA0BE0E836
:1040B000FEEF16161706E807F907C0F012161306EA
:1040C000E407F50798F0621B730B840B950B39F42A
:1040D0000A2661F0232B242B252B21F408950A2690
:1040E00009F4A140A6958FEF811D811D08950E94BE
:1040F0008A200C94FB200E94ED2038F00E94F420CE
:1041000020F0952311F00C94E4200C94EA20112463
:104110000C942F210E940C2170F3959FC1F3950FF1
:1041200050E0551F629FF001729FBB27F00DB11D3B
:10413000639FAA27F00DB11DAA1F649F6627B00DCB
:10414000A11D661F829F2227B00DA11D621F739FB4
:10415000B00DA11D621F839FA00D611D221F749FC2
:104160003327A00D611D231F849F600D211D822F09
:10417000762F6A2F11249F5750409AF0F1F0882330
:104180004AF0EE0FFF1FBB1F661F771F881F91505D
:104190005040A9F79E3F510580F00C94E4200C9408
:1041A0002F215F3FE4F3983ED4F38695779567958A
:1041B000B795F795E7959F5FC1F7FE2B880F911D87
:1041C0009695879597F9089597F99F6780E870E02D
:1041D00060E008959FEF80EC089500240A9416167D
:1041E000170618060906089500240A9412161306E5
:1041F000140605060895092E0394000C11F4882373
:1042000052F0BB0F40F4BF2B11F460FF04C06F5F8E
:104210007F4F8F4F9F4F089557FD9058440F551F64
:1042200059F05F3F71F04795880F97FB991F61F038
:104230009F3F79F087950895121613061406551FAF
:10424000F2CF4695F1DF08C0161617061806991F1B
:10425000F1CF86957105610508940895E894BB2710
:1042600066277727CB0197F90895DC01CB01FC0184
:10427000F999FECF06C0F2BDE1BDF89A319600B4BF
:104280000D9241505040B8F70895DC01A40FB51FBE
:104290004150504048F0CB01840F951F2E910E9451
:1042A000562141505040D0F70895262FF999FECF5E
:1042B00092BD81BDF89A019700B4021639F01FBA79
:1042C00020BD0FB6F894FA9AF99A0FBE08950E948D
:1042D000A921A59F900DB49F900DA49F800D911DC5
:1042E000112408952F923F924F925F926F927F9286
:1042F0008F929F92AF92BF92CF92DF92EF92FF92F6
:104300000F931F93CF93DF93CDB7DEB7CA1BDB0BA1
:104310000FB6F894DEBF0FBECDBF09942A88398846
:1043200048885F846E847D848C849B84AA84B9844D
:10433000C884DF80EE80FD800C811B81AA81B98159
:10434000CE0FD11D0FB6F894DEBF0FBECDBFED016D
:104350000895A29FB001B39FC001A39F700D811D5E
:104360001124911DB29F700D811D1124911D08957E
:10437000AA1BBB1B51E107C0AA1FBB1FA617B7078B
:1043800010F0A61BB70B881F991F5A95A9F78095A7
:104390009095BC01CD01089597FB072E16F400946B
:1043A00007D077FD09D00E94B82107FC05D03EF464
:1043B000909581959F4F0895709561957F4F0895D1
:1043C000A1E21A2EAA1BBB1BFD010DC0AA1FBB1F19
:1043D000EE1FFF1FA217B307E407F50720F0A21B8B
:1043E000B30BE40BF50B661F771F881F991F1A94F8
:1043F00069F760957095809590959B01AC01BD0122
:10440000CF010895EE0FFF1F0590F491E02D099460
:104410005058BB27AA270E9420220C94FB200E9400
:10442000ED2038F00E94F42020F039F49F3F19F479
:1044300026F40C94EA200EF4E095E7FB0C94E420BB
:10444000E92F0E940C2158F3BA17620773078407FB
:10445000950720F079F4A6F50C942E210EF4E09542
:104460000B2EBA2FA02D0B01B90190010C01CA012E
:10447000A0011124FF27591B99F0593F50F4503ED9
:1044800068F11A16F040A22F232F342F4427585FCB
:10449000F3CF469537952795A795F0405395C9F7E3
:1044A0007EF41F16BA0B620B730B840BBAF091509B
:1044B000A1F0FF0FBB1F661F771F881FC2F70EC03A
:1044C000BA0F621F731F841F48F48795779567950D
:1044D000B795F7959E3F08F0B0CF9395880F08F0F9
:1044E0009927EE0F9795879508950E9489220C943D
:1044F000FB200E94F42058F00E94ED2040F029F4A7
:104500005F3F29F00C94E42051110C942F210C945E
:10451000EA200E940C2168F39923B1F3552391F30B
:10452000951B550BBB27AA2762177307840738F022
:104530009F5F5F4F220F331F441FAA1FA9F335D07F
:104540000E2E3AF0E0E832D091505040E695001C33
:10455000CAF72BD0FE2F29D0660F771F881FBB1FED
:10456000261737074807AB07B0E809F0BB0B802DCB
:10457000BF01FF2793585F4F3AF09E3F510578F0F7
:104580000C94E4200C942F215F3FE4F3983ED4F385
:10459000869577956795B795F7959F5FC9F7880FCB
:1045A000911D9695879597F90895E1E0660F771F1D
:1045B000881FBB1F621773078407BA0720F0621BAE
:1045C000730B840BBA0BEE1F88F7E09508950E94D9
:1045D000EE226894B1110C942F2108950E941421A9
:1045E00088F09F5798F0B92F9927B751B0F0E1F0B4
:1045F000660F771F881F991F1AF0BA95C9F714C064
:10460000B13091F00E942E21B1E008950C942E213A
:10461000672F782F8827B85F39F0B93FCCF386959C
:1046200077956795B395D9F73EF4909580957095F9
:1046300061957F4F8F4F9F4F08950E945320880BA5
:10464000990B089581E090E0F8940C943623FB01D7
:10465000DC014150504048F001900D920020C9F714
:1046600001C01D9241505040E0F7089511E0C1E3B0
:10467000D1E004C0FE010E9402222196C233D1077C
:06468000C9F7F894FFCF1A
:10468600FFFF00FCE1A8A84F036A023B04C2022513
:104696000494025C018A025A04DC02F706F706FF5C
:1046A600FFFF8D017304FF000084038000000000FB
:1046B600008F07F8062607DC075707350749070066
:1046C6000000001311E2142511F91000000000C1CA
:1046D60014AD145F14E1144F1100000000E114A89A
:1046E600108B17E11400000000E114E2148B17E1AF
:1046F600145349474E414C004449474954414C5F85
:104706004F0052454C415900494E5445525255505E
:104716005400322E332E31004D7957616C6C53772D
:0A4726006974636800312E30000052
:00000001FF
