:200000000C942B010C94700A0C94490A0C9453010C9453010C9453010C9442120C94530143
:200020000C9453010C9453010C9453010C9453010C9453010C9453010C9453010C94530120
:200040000C94FF090C9453010C94BD0A0C94970A0C9453010C9453010C9453010C9453018C
:200060000C9453010C9453014E4D3A4C4F4F503A494E5420703D256420763D25640A004E5A
:200080004D3A4C4F4F503A2573282564293A53455420743D256420763D25642E25303464FC
:2000A0000A004E4D3A4C4F4F503A2573282564293A53455420743D256420763D25642E254C
:2000C0003032640A004E4D3A4C4F4F503A2573282564293A53455420743D256420763D251D
:2000E000640A0000000000240027002A0000000000250028002B0000000000230026002933
:2001000000040404040404040402020202020203030303030301020408102040800102049B
:2001200008102001020408102000000008000201000003040700000000000000004E4D3A5A
:20014000494E49543A4C4942205645523D322E332E312043503D524E4E52412D2D2D200AFC
:20016000004E4D3A494E49543A494E4F3D4D7957616C6C5377697463682076312E310A0021
:200180004E4D3A494E49543A5645523D312E380A0020004E4D3A4246523A494E49540A000A
:2001A0004E4D3A494E49543A52425420703D25640A004E4D3A4246523A494E5420703D25EE
:2001C00064206D3D25640A004E4D3A4246523A494E5420703D2564206D3D25640A004E4D3C
:2001E0003A5354503A485720563D256420463D2564204D3D25640A004E4D3A5354503A4901
:20020000443D2564204D3D25640A004E4D3A505245533A25732825642920703D25642074F2
:200220003D25640A004E4D3A4246523A4F4B0A004E4D3A534C503A4157414B450A004E4D55
:200240003A534C503A534C45455020733D25640A0A00DA17981911241FBECFEFD8E0DEBF8E
:20026000CDBF11E0A0E0B1E0E6E5F2E402C005900D92AA39B107D9F723E0AAE9B1E001C006
:200280001D92AE34B207E1F711E0CAE2D1E004C02197FE010E94EA1FC932D107C9F70E9493
:2002A0004D170C941E210C94000008950895CF93DF93EC0102960E949C08FC011586148650
:2002C000EA89FB8982E090E091838083DF91CF910895FF920F931F93CF93DF938C01EB019F
:2002E000FC018285082E000C990B22A512162CF4209719F4822F220F990BF80127A530A91D
:200300001216130614F4C1E0D0E0F80121A9222331F021E0CD2B09F020E0C22FD0E0F82E61
:200320006C2F0E941609F80167A570A91616170694F4072E000C880B990B0E94EB0861E024
:20034000CD2B09F060E08F2DDF91CF911F910F91FF900C941609DF91CF911F910F91FF9093
:200360000895CF92DF92EF92FF92CF93DF93FC01208131812330310541F12115310529F197
:200380002230310501F14285442301F121303105E1F4EC01C680D780E084F1840E94BB099E
:2003A000C61AD70AE80AF90A2A813B814C815D81A8EEB3E00E944F1F41E0C616D706E80674
:2003C000F90620F402C041E001C040E0842FDF91CF91FF90EF90DF90CF900895CF92DF9278
:2003E000EF92FF920F931F93CF93DF93EC016A017B019A01AB01C701B6010E9405218111CF
:20040000CFC00C851D850115110561F0A70196016C897D898E899F890E94F11F6C8B7D8B73
:200420008E8B9F8B69857A856F5F7F4F7A8769870130110589F480E090E00E94F61D9B011A
:20044000AC016C897D898E899F890E945D206E877F87888B998B12C00230110549F48C89F8
:200460009D89AE89BF898E879F87A88BB98B06C0012B21F4CE86DF86E88AF98A8A819B8149
:20048000892B01F56E857F85888999890E94CF207F936F938E811F928F938C811F928F9321
:2004A00088858F938F818F9385EC90E09F938F930E94C5118DB79EB70A960FB6F8949EBF47
:2004C0000FBE8DBF8A819B81019799F5CE84DF84E888F98820E030E048EC52E4C701B60117
:2004E0000E94571E0E94CF20CB0164E670E00E94B41F9F938F93C701B6010E94CF207F9303
:200500006F938E811F928F938C811F928F9388858F938F818F9382EA90E09F938F930E94E4
:20052000C5118DB79EB70C960FB6F8949EBF0FBE8DBF8A819B81029799F5CE84DF84E88870
:20054000F98820E030E44CE156E4C701B6010E94571E0E94CF20CB0160E177E20E94B41F9D
:200560009F938F93C701B6010E94CF207F936F938E811F928F938C811F928F9388858F9312
:200580008F818F938FE790E09F938F930E94C5118DB79EB70C960FB6F8949EBF0FBE8DBF75
:2005A000DF91CF911F910F91FF90EF90DF90CF9008950F931F93CF93DF938C0102960E94B3
:2005C0009C08EC016091AF01062E000C770BF80180A5882331F081E0672B09F080E0682F5A
:2005E00070E0072E000C880B990B0E94F81DAB01BC01CE01DF91CF911F910F910C94EE0195
:20060000CF92DF92EF92FF920F931F93CF93C82FC090AB01D090AC01E090AD01F090AE01F3
:20062000C114D104E104F10441F10E94BB090091F6021091F7022091F8023091F902DC0137
:20064000CB01801B910BA20BB30B8C159D05AE05BF0598F4809104018C130FC00E94BB09FC
:200660000091F6021091F7022091F8023091F9020617170728073907F8F0C09304018C2F4B
:200680000E94ED088093AF01282F082E000C330B3F938F938C2F0C2E000C990B9F93CF93FC
:2006A00088E690E09F938F930E94C5110F900F900F900F900F900F90CF911F910F91FF9097
:2006C000EF90DF90CF90089582E00C94000383E00C940003FC0180819181009711F00C94DD
:2006E0004E1A0895CF92DF92EF92FF92CF93DF93EC010E94BB096B017C012A813B814C81CD
:200700005D81A8EEB3E00E944F1FC60ED71EE81EF91ECE82DF82E886F98681E08A87DF915C
:20072000CF91FF90EF90DF90CF900895EF92FF920F931F93CF93DF93EC017B018CA5882361
:20074000E9F08AA99BA96115710519F4FC01128620C02CE3269FA001279F500D1124052EDB
:20076000000C660B770BFC0142835383648375830E947203EE24E394F12C0BC06130710574
:2007800041F48AA99BA9FC01208131812130310559F1E881F9810084F185E02DB701CE011B
:2007A0000995F9A6E8A6CE0102960E949C088C01B701FF0C880B990B0E94F81DAB01BC011A
:2007C000C8010E94EE016DA57EA5161617067CF4072E000C880B990BDF91CF911F910F9139
:2007E000FF90EF900C94EB080E947203D2CFDF91CF911F910F91FF90EF90089561E070E044
:200800008091A4029091A502892B11F060E070E08CE792E00C949603CF93DF93EC018AA902
:200820009BA90E94B101882341F060E070E0CE010E949603EAA9FBA91286DF91CF9108956E
:20084000CF93DF93EC0102960E949C08FC011586148661E08A850E9445098AA518161CF41A
:2008600061E00E944509EA89FB8982E090E09183808360E070E0CE01DF91CF910C949603FF
:200880003F924F925F926F927F928F929F92AF92BF92CF92DF92EF92FF920F931F93CF9325
:2008A000DF938C017B01DC0154968D919C9155970E94B101811105C0F8018189882309F469
:2008C00061C1D8019096ED91FC919197309711F0C8010995F801C281D381D80114968D9164
:2008E0009C911597880F991F12962D913C911397820F931FC817D907B9F1A990B990E114D0
:20090000F10439F0F7019681D50114968C919813E4CFC12CD12CF80183859485C816D906EE
:20092000E0F60190F081E02DE114F10429F00480F581E02DB70104C00280F381E02DB50193
:20094000C8010995D8011D966D917D918D919C915097611571058105910511F00E94EB08C8
:20096000BFEFCB1ADB0AD7CFD8019296ED91FC919397309711F0C8010995F80184899589D0
:200980000E94B101882339F0D80154968D919C9155970E947203F801828993890E94B101AA
:2009A000811106C0D80151968C91882309F4EFC0F801C280D38038E9632E31E0732ED801E0
:2009C00014968D919C911597880F991F12962D913C911397820F931FC816D90609F4BEC0CF
:2009E000F601C191D1916F01E114F10439F0D70116969C918C819813E2CF07C0888D811141
:200A000004C089859A85892BD1F28A819B81892B51F56E857F85888999890E94CF204B0146
:200A20005C014E805C808CEB92E00E946A0B8091C0028F7180688093C0028091BF02877056
:200A400080628093BF02092C000CAA08BB088092C3029092C402A092C502B092C602642DD7
:200A6000852D0E94BC088A819B81019721F53B848E849F84A888B9884E805C808CEB92E091
:200A80000E946A0B8091BF02877088628093BF028091C002806E8093C0028092C302909229
:200AA000C402A092C502B092C6023092C702642D852D0E94BC088A819B81029721F53B84A4
:200AC0008E849F84A888B9884E805C808CEB92E00E946A0B8091BF02877088628093BF023F
:200AE0008091C002806E8093C0028092C3029092C402A092C502B092C6023092C702642D82
:200B0000852D0E94BC088A819B81039789F4AA88BB888E809C808CEB92E00E946A0BB5012A
:200B20008CEB92E00E94340B682D892D0E94BC088A819B81039769F08C859D85892B59F0F0
:200B40001C8A1D8A1E8A1F8A1E861F86188A198A02C07B8A6A8A1A86198631CFF80182896B
:200B600093890E94B101882339F0D80152968D919C9153970E947203F8018189882359F02D
:200B8000118A09C0E114F10409F09BCE04CFE114F10409F00DCFDF91CF911F910F91FF9064
:200BA000EF90DF90CF90BF90AF909F908F907F906F905F904F903F900895DC011296ED91C1
:200BC000FC91139714968D919C911597880F991F8E0F9F1F8E179F0749F0A191B1911496F1
:200BE0002C9114976213F6CFCD01089580E090E00895EF92FF920F931F93CF93DF937C01C4
:200C0000EB016E810E94DD058C01892BE1F08C8187708230C1F48D818230A9F4F70182859C
:200C20000E94ED08BC01990F880B990B0E94F81DAB01BC01C801DF91CF911F910F91FF90E9
:200C4000EF900C94EE01DF91CF911F910F91FF90EF900895EF92FF920F931F93CF93DF9381
:200C6000EC018B01FB0166810E94DD057C01892B09F440C0F8018481982F9770913021F4C4
:200C80009BA591111CC005C09230C9F49BA59923B1F0829586958770823021F4F8018781C4
:200CA000908509C0811105C0C80107960E94D71A02C080E090E0BC01CE010E949603F801B4
:200CC000848187708230B1F48BA5811113C068A579A5072E000C880B990B0E94F81DAB0126
:200CE000BC01C701DF91CF911F910F91FF90EF900C94EE01DF91CF911F910F91FF90EF9084
:200D000008950F931F93CF93DF93EC018B01FB0166810E94DD050097B9F0F80124812770B9
:200D2000223091F4FC013681F801258132130CC0E881F9810280F381E02DBC01CE01DF9196
:200D4000CF911F910F910994DF91CF911F910F910895833081F028F4813099F08230A1F0CC
:200D600008958730A9F08830B9F08430D1F4809180008F7D03C0809180008F778093800022
:200D8000089584B58F7702C084B58F7D84BD08958091B0008F7703C08091B0008F7D809328
:200DA000B00008953FB7F8948091410390914203A0914303B091440326B5A89B05C02F3F59
:200DC00019F00196A11DB11D3FBFBA2FA92F982F8827820F911DA11DB11DBC01CD0143E039
:200DE000660F771F881F991F4A95D1F708950895CF92DF92EF92FF920F931F93CF93DF939C
:200E00006C017A018B01C0E0D0E0CE15DF0581F0D8016D918D01D601ED91FC910190F0818D
:200E2000E02DC6010995892B11F02196EECF7E01C701DF91CF911F910F91FF90EF90DF9033
:200E4000CF900895089580E090E00895FC01538D448D252F30E0842F90E0821B930B5417B1
:200E600010F0CF96089501970895FC01918D828D981761F0828DDF01A80FB11D5D968C918D
:200E8000928D9F5F9F73928F90E008958FEF9FEF0895FC01918D828D981731F0828DE80F4C
:200EA000F11D858D90E008958FEF9FEF0895FC01918D228D892F90E0805C9F4F821B910969
:200EC0008F739927089586EB91E00E94570721E0892B09F420E0822F0895FC01848DDF01E3
:200EE000A80FB11DA35ABF4F2C91848D90E001968F739927848FA689B7892C93A089B18927
:200F00008C91837080648C93938D848D981306C00288F389E02D80818F7D80830895EF92DB
:200F2000FF920F931F93CF93DF93EC0181E0888F9B8D8C8D981305C0E889F989808185FD6C
:200F400026C0F62E0B8D10E00F5F1F4F0F731127E02E8C8DE8120CC00FB607FCFACFE8897A
:200F6000F989808185FFF5CFCE010E946D07F1CF8B8DFE01E80FF11DE35AFF4FF0829FB792
:200F8000F8940B8FEA89FB89808180620AC09FB7F894EE89FF896083E889F98980818370DC
:200FA000806480839FBF81E090E0DF91CF911F910F91FF90EF900895CF93DF93EC01888D7A
:200FC0008823C9F0EA89FB89808185FD05C0A889B9898C9186FD0FC00FB607FCF5CF8081FF
:200FE00085FFF2CFA889B9898C9185FFEDCFCE010E946D07E7CFDF91CF91089580E090E004
:20100000892B29F00E94630781110C94000008950E940A210F931F93EAEFF2E09091B20188
:20102000918382836683258384814770807F482B88E0089F80011124042B0F7E0483CF0100
:201040001F910F910895E6EBF1E0A089B18982E08C93A485B5851C92A685B78588E08C931E
:20106000108EA489B58986E08C93A289B3898C9180618C93A289B3898C9188608C93A289A8
:20108000B3898C9180688C930288F389E02D80818F7D8083089580911F03829586958770D4
:2010A000813019F4809122030895811105C082E293E00E94D71A089580E00895DF92EF9252
:2010C000FF920F931F93CF93DF93D82EC091B002D091B1020091B2021091B302000F111F60
:2010E0000C0F1D1F0C171D0751F0E990F9906D2DC7010E94DD05892BA9F3C70102C080E0EF
:2011000090E0DF91CF911F910F91FF90EF90DF900895CF93C1E08C2F0E945E08009749F08F
:201120006C2F0E94DD05892B21F0CF5FCF3F99F7CEEF8C2FCF910895DC0112962D913C917A
:2011400013971216130614F420E030E0220F331FDC01ED91FC91E20FF31F8081918108956E
:201160006091E3027091E4026115710521F080E090E00C94FD140895CF93DF938093C202EC
:201180006093C102C0E0D0E08091BB0290E0C817D907F4F49091BA028091B2018093BD02F1
:2011A0008091C002807F282F216038E0939FC0011124822B8093C0028091B10180FF04C0BD
:2011C0008CEB92E00E94150C0E94B0082196DCCFDF91CF9108950C94FD14CF93DF93282F5E
:2011E00030E0F901E75DFE4F8491F901EB5EFE4FD491F901EF5FFE4FC491CC2391F081115E
:201200000E94A906EC2FF0E0EE0FFF1FE950FF4FA591B491EC91ED2381E090E021F480E0A2
:2012200002C080E090E0DF91CF9108951F93CF93DF93282F30E0F901E75DFE4F8491F90128
:20124000EB5EFE4FD491F901EF5FFE4FC491CC23C1F0162F81110E94A906EC2FF0E0EE0FF9
:20126000FF1FE351FF4FA591B4919FB7F894111104C08C91D095D82302C0EC91DE2BDC9357
:201280009FBFDF91CF911F910895CF93DF9390E0FC01EB5EFE4F2491FC01EF5FFE4F84919A
:2012A000882361F190E0880F991FFC01ED51FF4FC591D491FC01E351FF4FA591B4916111C2
:2012C00009C09FB7F8948881209582238883EC912E230BC0623061F49FB7F8948881322F29
:2012E000309583238883EC912E2B2C939FBF06C08FB7F894E8812E2B28838FBFDF91CF9162
:2013000008958F929F92AF92BF92CF92DF92EF92FF926B017C010E94D2064B015C01C11487
:20132000D104E104F104F1F00E94D206DC01CB0188199909AA09BB09883E9340A105B1054B
:2013400070F321E0C21AD108E108F10888EE880E83E0981EA11CB11CC114D104E104F1045F
:2013600019F7DDCFFF90EF90DF90CF90BF90AF909F908F9008952FB7F89460913D037091B8
:201380003E0380913F03909140032FBF0895CF92DF92EF92FF92CF93DF93D82F0E94BB09A5
:2013A0006B017C0181E0D11180E080932003C0E00E94BB09DC01CB018C199D09AE09BF09F2
:2013C000803D9740A105B10590F4C11110C0A8950E941C0C0E94660C80911F0387708330FF
:2013E00039F7C1E0809120038D13E1CFE1CF8C2FDF91CF91FF90EF90DF90CF9008951F9233
:201400000F920FB60F9211242F933F938F939F93AF93BF9380913D0390913E03A0913F03EE
:20142000B091400330913C0326E0230F2D3720F40296A11DB11D05C029E8230F0396A11DF5
:20144000B11D20933C0380933D0390933E03A0933F03B09340038091410390914203A0912E
:201460004303B09144030196A11DB11D8093410390934203A0934303B0934403BF91AF9129
:201480009F918F913F912F910F900FBE0F901F9018951F920F920FB60F9211242F933F9384
:2014A0004F935F936F937F938F939F93AF93BF93EF93FF93E0910801F09109010995FF9115
:2014C000EF91BF91AF919F918F917F916F915F914F913F912F910F900FBE0F901F901895D5
:2014E0001F920F920FB60F9211242F933F934F935F936F937F938F939F93AF93BF93EF9319
:20150000FF93E0910601F09107010995FF91EF91BF91AF919F918F917F916F915F914F91CA
:201520003F912F910F900FBE0F901F9018951F920F920FB60F9211242F933F934F935F935F
:201540006F937F938F939F93AF93BF93EF93FF9386EB91E00E946D07FF91EF91BF91AF91E3
:201560009F918F917F916F915F914F913F912F910F900FBE0F901F9018951F920F920FB62D
:201580000F9211242F938F939F93EF93FF93E091C601F091C7018081E091CC01F091CD013C
:2015A00082FD12C090818091CF018F5F8F732091D001821751F0E091CF01F0E0EA54FE4F00
:2015C000958F8093CF0101C08081FF91EF919F918F912F910F900FBE0F901F901895CF9359
:2015E000C82F8093B2018F3F51F08093050163E082E20E94C21061E081E20E94C2100E9431
:20160000EF106C2F80E090E00E943D1F81E0CF9108950F931F93CF93DF938C01FC0186814B
:201620000E945E08EC01009771F0B8010E944004EEA1FFA1309739F0B801CE01DF91CF91A7
:201640001F910F910994DF91CF911F910F910895FC01838187708860838384818F71806213
:2016600084836783CF0108950F931F93CF93DF93EC016115710561F0FB0101900020E9F72D
:201680003197E61BF70BE931F10518F0E9E101C0E0E00E2F10E08B81282F2770C80133E019
:2016A000880F991F3A95E1F7822B8B838C818F718C83EE2329F0A801CE0107960E940F214C
:2016C000FE01E00FF11F1782CE01DF91CF911F910F910895CF93DF93FC011082118212825D
:2016E000148215821682DC0117968AE1ED0119928A95E9F782E08383DF91CF910895EF9242
:20170000FF921F93CF93DF937C01FC01C2818091A40180FF04C0CF3F09F05BC014C0C11134
:2017200003C0C091B3010FC0CF3F69F08C2F90E003960E94251F8F3F29F48091B301F70159
:2017400090819813C82F8091B201F7018083438142FD06C046954695469517E0140F01C0E2
:2017600010E2D091B501D170299880E091E00197F1F76EE080E20E94C21084EC90E0019771
:20178000F1F76C2F8AE20E94C2106C2F80E30E94C21081EE0E940211CF3F11F0DD2311F040
:2017A00080EB01C080EA412F113208F040E220E0B7010E949110299AE12CF12C8FEF0E94BE
:2017C0000211182F807339F4F1E0EF1AF108B1F702C080E024C0299860E387E20E94C2102D
:2017E00014FF03C081EE0E9402110E94EF1015FDD1E081E0CF3F09F080E08D2B9091B30136
:20180000C9130DC09091A501811106C021E0290F2F70907F922B01C0907F9093A501DF9153
:20182000CF911F91FF90EF9008952091A40122FD0C947F0B80E00895E0919A01F0919B0128
:20184000309721F00280F381E02D099408950F931F930E94BB0900919C0110919D0120919B
:201860009E0130919F01601B710B820B930B1F910F9108959C0180919A0190919B018217BA
:20188000930751F09091A4019F719093A40130939B0120939A0105C08091A401805E8093B6
:2018A000A401E0919A01F0919B01309721F00190F081E02D09950E94BB0960939C017093DC
:2018C0009D0180939E0190939F0108953F924F925F926F927F928F929F92AF92BF92CF925E
:2018E000DF92EF92FF920F931F93CF93DF938091A40184FB332430F884FFEDC20E94BB09F1
:2019000000914503109146032091470330914803DC01CB01801B910BA20BB30B813A9B4B11
:20192000AD40B105A0F00E94BB096093450370934603809347039093480386E00E94FC10A8
:201940008532E1F485E00E94FC108C34B9F426E0E22E30E0C32E30E0D32E44244A94552494
:20196000539443E0642E42E0742E87E10E94FC1080FDB1C2EA94E11006C0ADC28BE091E081
:201980000E943A0CE4CF21E041E060E070E080E60E949110C82F813220F082EE0E94021172
:2019A000C0E021E04C2F6BE173E081E60E94911060E487E20E94C21080911E03B82EB6943F
:2019C000B694B69439E13B1510F499E1B92E82FD03C097E09B0D01C090E29C13C6CF8370D9
:2019E000823019F610911F03C0912003D0911C03F0901B0300911D038091B301F81651F00C
:201A00008091B201D81731F08D2F90E06F2D03960E943D1F17708091A50180688093A501B4
:201A20008091B201081342C020911E03822F8695869586958A3108F089E138E0839FC001D9
:201A400011242770282B20931E03EB2DF0E0E55EFC4F178280911F0383FF15C091E2EBE1BB
:201A6000F3E0AAEFB2E001900D929A95E1F7877F80618093FE020093FB02D093FC028AEFCD
:201A800092E00E94150C90911F0394FF05C08BE193E00E94090B69CF1330C9F78091200372
:201AA00021EF280F233008F06BC05FCF0F3F09F051C0133009F040C08091A40182FF1EC092
:201AC000C730E1F48091B301D81709F44ECF0E94BB098090A0019090A101A090A201B09080
:201AE000A301DC01CB0188199909AA09BB0980319742A105B10508F4BDC161C1C83009F468
:201B000034CFC431C9F48091B301F81215C00E94BB097370882799270E948109C091B30183
:201B200000E025E143E06FEF8D2F0E940A086C2F0E94280B0E947F0B8091B301F81215CF7F
:201B40008091B201D81709F4C2C18091A40182FDB1C1BDC18091A40182FF07CF133069F480
:201B6000C851C23050F40E944B088E3F31F061E0680F8BE193E00E94280B8BE193E097C190
:201B8000C430B1F48091210390910A01891719F08F3F09F0EACE0E944B089FEF980F9E3F1C
:201BA00018F40E94EF0AE1CE8FEF8093B201DDCEC830C9F4C091A401C0FFD7CE0E944B08DC
:201BC0008F3F09F4D2CE8F5F8F3F09F4CECE9091B401891708F0C9CEC1FDC7CE8093B40125
:201BE000D093B301C2CEC83149F400E029E143E06FEF8D2F0E940A0861E057C1C93161F485
:201C00008091A40183FFB1CE877F8093A4010E944B088093A601A9CECE3109F4A6CECD31BB
:201C2000B1F400E02FE143E06FEF80E00E940A08FC0184818F7180648483838187708061B1
:201C4000838380E09FEF90878783CF0130C120911C032111B0C08D3059F498E088E10FB68C
:201C6000F894A895809360000FBE90936000FFCF8B3169F40E944B0891E0811101C090E0C8
:201C80008091B10190FB80F98093B1016ECE8630A9F490912203992329F081E09D3419F0D3
:201CA00080E001C0832D8093B00141E050E063E071E080EB91E00E942D1F57CE833119F4FA
:201CC0000E94001652CE8231C9F40E94270C4B015C0100E026E143E06FEF80E00E940A08C2
:201CE000FC0184818F71806A8483838187708062838387829086A186B28616C08230C1F453
:201D000000E022E043E06FEF80E00E940A08FC0184818F71806A8483838187708062838376
:201D20004782508661867286CF010E94150C1DCE8130F9F4C114D10409F417CE929596952B
:201D40009770953049F4609122037091230380912403909125030AC0911105C082E293E0B4
:201D60000E94F51A03C060E070E0CB010E940000FCCD8A30E1F480912203833409F0F5CDF1
:201D8000C3E0D0E06FEFCE010E943D1F2196C33091E0D907B9F700E02AE043E06FEF80E04F
:201DA0000E940A086FE771E00E94340BBECF8C3109F06DCEDACD8A3109F069CED6CD809123
:201DC000A40183FDD2CD9091B201911103C01092A60127C088608093A4010093A60100E01C
:201DE00028E143E06FEF80E00E940A0861E00E94280B0E947F0B0E94BB094B015C01109252
:201E00002003C0E00E94BB09DC01CB0188199909AA09BB09803D9740A105B10510F4CC2353
:201E2000D9F08091A401877F8093A401C091A601CF3F09F49ACD0E94BB096093A0017093FE
:201E4000A1018093A2019093A3018091B4018C1789F0C093B4010EC00E94660CA895809149
:201E60001F038770833071F6C1E080912003893141F6C8CF0E94BB096093A0017093A10133
:201E80008093A2019093A3010E94BB097370882799270E948109C091B40100E028E043E0D0
:201EA0006FEF8D2F0E940A086C2F0E94280B0E947F0B5BCD8BE193E00E947F0B133009F445
:201EC00054CD8091B301F81609F4E1CD4ECD133009F0DDCD4ACDDF91CF911F910F91FF909C
:201EE000EF90DF90CF90BF90AF909F908F907F906F905F904F903F9008958091A4018460D7
:201F00008093A4018091A50180788093A501E091A901F091AA01309709F00994089580914F
:201F2000A5018F708B3020F083E291E00C943A0C08950F931F930E94270C2091A5012077C1
:201F4000203729F000E117E220E030E004C000E61AEE20E030E0061717072807390730F497
:201F600080E091E01F910F910C943A0C1F910F9108958091B2018F3F19F08BE191E010C025
:201F80000E94270C613D77408105910558F08091A401803618F487E191E002C08BE091E0C4
:201FA0000C943A0C08950E94270C613D77408105910520F48091A40181FF08958091B301AC
:201FC0008F3F41F08091A4018E7F8093A40187E191E009C08091A401803618F483E291E097
:201FE00002C08BE091E00C943A0C8091A6018F3FA1F00E94BB096093A0017093A101809394
:20200000A2019093A3018091A6019091B40189138093B4018FE191E013C00E94270C613D3D
:2020200077408105910570F08091A401803618F48BE191E005C0877F8093A40183E291E0BF
:202040000C943A0C08950F938FEF8093A601E4EAF1E080818860808300E028E143E06FEF2E
:2020600080E00E940A0861E00E94280B0F910C947F0B0F938091B2018F3FC1F40E94BB091D
:202080006F3F19F060930A0102C010920A0100E023E043E060910A0180E00E940A0868E9B5
:2020A00071E00E94340B0F910C947F0B0F9108950F93E4EAF1E08081897F81608083E2EBEC
:2020C000F1E08FEF8283818300E027E043E06FEF0E940A0868E971E00E94340B0F910C94C9
:2020E0007F0BE4EAF1E08081877F8F7E80831092A0011092A1011092A2011092A3010E94EC
:20210000BB096093450370934603809347039093480344E050E060E070E082EB91E00C9447
:20212000151F90E59CBD1DBC2A98E0E1F0E03197F1F78EBD00000DB407FEFDCF8EB5FB01A5
:202140009FEF4150C8F0222361F09EBD00000DB407FEFDCF8EB56115710599F380833196A0
:20216000F0CFDF01119680818EBD00000DB407FEFDCF8EB5FD01E5CF2A9AE0E1F0E0319729
:20218000F1F70895CF93DF931F92CDB7DEB7698320E041E0BE016F5F7F4F0E9491100F90D2
:2021A000DF91CF9108958091A501982F9077903759F0982F92959F709F5F97709295907FE5
:2021C0008F78892B8093A5018091A4018B7F8F7E8093A40129986CE080E20C94C2106FE0D6
:2021E00080E20E94C210609105016F3F19F08AE20E94C210299A089521E041E060E070E069
:202200000C94911020E040E060E070E00C949110CF93219A229A29982A9ACFB7F89480910B
:202220004903811127C0EBE0F1E08491EFE1F1E09491E82FF0E0EE0FFF1FED51FF4FA5919E
:20224000B491EC91E92321F461E08AE00E94160961E08AE00E9445098CB580618CBD8CB5E8
:2022600080648CBD61E08DE00E94450961E08BE00E944509809149038F5F80934903CFBFBF
:2022800029986EE080E20E94C21084E293E20197F1F763E083E20E94C2106FE584E20E9486
:2022A000C2106CE485E20E94C21065E286E20E94C21064E08DE30E94C2108DE10E94FC10BA
:2022C000843041F063E780E50E94C21064E08DE30E94C21086E00E94FC10853209F04AC000
:2022E00085E00E94FC108C3409F044C062E082E20E94C21060E081E20E94C21063E08CE32B
:202300000E94C210CFEFC093120120E045E062E171E08BE20E94911020E045E062E171E003
:202320008AE20E94911020E045E062E171E080E30E94911082EE0E94021181EE0E94021146
:2023400060E787E20E94C2108091A40180618093A4018091B5018E7F8093B5018091B201A9
:202360008F3F69F09FEF980F9E3F60F40E94EF0A811105C08BE091E0CF910C943A0C83E257
:2023800091E0FACFC093B201F5CFCF92DF92EF92FF920F931F93CF93DF93CDB7DEB7C857F5
:2023A000D1090FB6F894DEBF0FBECDBF0E94BB099B01AC0119A28E010F5D1F4F8AE0C82EC9
:2023C000D12CE12CF12CCA01B901A70196010E94C81F605DF80162938F012115310541059C
:2023E000510589F7309761F001900020E9F73197AF01401B510BB80186EB91E00E94F806F4
:2024000001E911E0F8016491611132C09E012B573F4FCD57DF4F48815981C358D04068E771
:2024200070E08E010F5F1F4FC8010E94391BF80101900020E9F73197AF01401B510BB801B0
:2024400086EB91E00E94F80686EB91E00E94DC07C858DF4F0FB6F894DEBF0FBECDBFDF918E
:20246000CF911F910F91FF90EF90DF90CF90089586EB91E00E948F070F5F1F4F892B09F090
:20248000C1CFC4CF1F920F920FB60F9211240F900FBE0F901F9018950F93CF93DF938F3F81
:2024A00011F0EA0102C0C2E8D1E0022F262F40E0682F80E00E940A08BE010E94340BDF91B2
:2024C000CF910F910C94150CAF92BF92CF92DF92EF92FF920F931F93CF93DF9385E292E0C4
:2024E0009F938F930E94C5110E94B00800E02BE043E06FEF80E00E940A0868E871E00E94F3
:20250000340B0E94150C2CE043E06FEF80E00E940A0865E971E00E94340B0E94150C0E9433
:20252000B0080091B0021091B1020F900F904BE0A42E42E0B42E8091B2029091B302880FDB
:20254000991F2091B0023091B102820F931F08171907E1F1F801C190D1908F01F601E28004
:20256000F380F60184819581880F991F22813381820F931FE816F90631F1F701C191D19122
:202580007F018E811F928F938D811F928F938C811F928F9388858F938F818F93BF92AF9225
:2025A0000E94C5114F8158852091BA026D818C810E944C128DB79EB70A960FB6F8949EBFA7
:2025C0000FBE8DBFCECF0E94B008B5CF0E94B0080E94B008DF91CF911F910F91FF90EF9085
:2025E000DF90CF90BF90AF900C94B008CF93DF93E3E5F2E08EEF93E095A384A381E0848FF6
:2026000082E0878B88EE93E0A0E0B0E08093AB019093AC01A093AD01B093AE01C0EBD2E08E
:2026200088E592E0A0E0B0E08DAB9EABAFABB8AF89AD1F928F9380EA91E09F938F930E948F
:20264000C51161E089AD0E94450961E089AD0E94160983E991E09F938F930E94C5110F90BD
:202660000F900F900F900F900F90DF91CF910895CF92DF92EF92FF920F931F93CF93DF93C6
:2026800000D0CDB7DEB762E082E00E9445098091B602882321F08091B0018093B702809199
:2026A000B7021F928F938091B2011F928F9388EF91E09F938F930E94C511E090B002F090A1
:2026C000B1020F900F900F900F900F900F90CC24C394D12C8091B2029091B302880F991F5F
:2026E0002091B0023091B102820F931FE816F90609F466C0D7010D911D917D01D80152963D
:20270000ED91FC91539780819181892B71F4D182C0828091E5029091E602A091E702B091A7
:20272000E80282839383A483B583D80154962D913C915597D9018D919C911197892B69F41D
:20274000808191818D939C934281538164817581F9014283538364837583D801ED91FC914D
:202760000190F081E02DC8010995F801828993890E947203D80154968D919C9155970E9410
:202780007203F80187898F3F81F09285968B248D933029F48093F1022093F30206C092307D
:2027A00021F48093F2022093F402D8015E96ED91FC915F97309709F48DCFC80109958ACFA6
:2027C0008091E202833039F482E08093F10281E08093F30207C0823029F48093F20281E055
:2027E0008093F4028091F1028F3FB1F160E083E00E9445096091F30267FD03C083E00E94B7
:2028000016098091B8029091B9023091F102019791F087E693E090930901809308018091EB
:202820006900282F237FB4E03B9FC0011124822B80936900E99A1F923F931F9283E08F936D
:2028400088EC91E09F938F930E94C5110F900F900F900F900F900F908091F2028F3F91F1B8
:2028600060E082E00E9445096091F40267FD03C082E00E9416092091B8023091B90290918D
:20288000F2022130310569F024E633E03093070120930601809169008C7F892B809369000D
:2028A000E89A1F929F931F9282E08F9382EB91E09F938F930E94C5110F900F900F900F9058
:2028C0000F900F9080914A0390914B03009711F48EE493E08E010F5F1F4F081B190BF8942E
:2028E0003091600020918000909182008FEF86BB1092850010928400109280001092820091
:202900004DE088E10FB6F894A895809360000FBE4093600080916000806480936000A8951B
:2029200085E0809381008091600087FFFCCF10928100A895809160008861809360003093EC
:202940006000789420938000909382006091840070918500CB01A0E0B0E0BC01CD012BE0C6
:20296000660F771F881F991F2A95D1F720EA36E841E050E00E94C81FC9016AE070E00E945E
:20298000A01FF62EE72E8EE480937C0066E470E080E090E00E94810980917A008064809326
:2029A0007A0080917A0086FDFCCF20917800309179001F930F93EF92FF9240E050E064EB5C
:2029C0007BE281E190E00E94C81F3F932F938EED91E09F938F930E94C5110FB6F894DEBF05
:2029E0000FBECDBF0F900F90DF91CF911F910F91FF90EF90DF90CF9008958F929F92AF9214
:202A0000BF92CF92DF92EF92FF924B015C010E94BB096B017C010E94BB09DC01CB018C19D5
:202A20009D09AE09BF0988159905AA05BB0530F4A8950E941C0C0E94660CEDCFFF90EF90BE
:202A4000DF90CF90BF90AF909F908F900895EF92FF920F931F93CF93DF930091EA021091D7
:202A6000EB02E091EC02F091ED02EE0FFF1F7F01E00EF11EC091B802D091B9022091DD024B
:202A80003091DE024091DF025091E002A8EEB3E00E944F1FA801E416F506F1F0FA01A1913B
:202AA000B191AF012D913C9111972130310599F7C130D10581F716960D911D912D913C9118
:202AC0001997061B170B280B390B16960D931D932D933C931997DFCF0091B0021091B1020C
:202AE000FF24FA948091B2029091B302880F991F2091B0023091B102820F931F08171907E2
:202B0000B1F0F801C191D1918F018CEB92E00E946A0B809104018F3F21F09E898913E2CF6E
:202B200037C060E070E0CE010E944004DBCF8091B8029091B902019709F05BC00091DD02EC
:202B40001091DE02D091DF02C091E002CF93DF931F930F938EE392E09F938F930E94C511A8
:202B60000F900F900F900F900F900F90A8EEB3E098014D2F5C2F0E944F1F0E94FD1480E3AC
:202B800092E09F938F930E94C5110F900F9031C08D8D882371F08F89833029F48091AF01F9
:202BA000813021F506C0823021F48091AF0181111DC0E881F9810680F781E02DCE01099536
:202BC000688D798D8A8D9B8D611571058105910511F00E94EB08ECA1FDA1309711F0CE015B
:202BE000099560E070E0CE010E944004F092040179CFDF91CF911F910F91FF90EF90089558
:202C00000F93CF9300E02FE043E06FEF80E00E940A0868E971E00E94340BEAEFF2E08381FA
:202C200087708061838384818F71806C848381E087831086CF010E94150C8FE00E94C70949
:202C400020E048E951E062E18FEF0E944C12C091B30126E043E06FEF80E00E940A086C2F16
:202C60000E94280B0E94150C86E00E94C709CF910F910C9464120F93CF938091B10181FD89
:202C800020C00E9400168091B10181608093B101C4E000E02AE143E06FEF80E00E940A080F
:202CA00062E00E94280B0E94150C8BE10E94C709811102C0C15069F78091B10182608093DF
:202CC000B101CF910F9108950F931F93CF93DF93EC017D836C8361388FE3780720F4CB0137
:202CE000880F991F02C08FEF9FEF0E94B6198C016A817B81FC0120E030E088819981261765
:202D000037076CF4A901440F551FDC01A40FB51F8D919C91819391932F5F3F4FEECF00974D
:202D200011F00E944E1A08831983DF91CF911F910F910895CF92DF92EF92FF920F931F936C
:202D4000CF93DF93EC018B01EA80FB808C819D81E816F90659F5C70101969D838C83813884
:202D60002FE3920718F4880F991F02C08FEF9FEF0E94B6196C01FC0120E030E08881998171
:202D80002E153F056CF4A901440F551FDC01A40FB51F8D919C91819391932F5F3F4FEECF1B
:202DA000009711F00E944E1AC882D9828A819B819C01220F331FE881F981E20FF31F11830B
:202DC000008301969B838A83DF91CF911F910F91FF90EF90DF90CF9008950F931F93CF935F
:202DE000DF93EC0181E391E0998388831B821A821D821C821F821E8288E991E099878887B0
:202E000081E090E09C878B871D861E861F86188A91E0998B8FEF8E8B8F8B188E198E1A8EE3
:202E20001B8E8C8F9D8F6A878BE090E00E94B6198C01FC0111821082128213821482158260
:202E400016821782108611861286BC018AEE92E00E949A161B8B0A8B8BE090E00E94B619FC
:202E60008C01FC0111821082128213821482158216821782108611861286BC018AEE92E0B0
:202E80000E949A161D8B0C8BBE0180EB92E0DF91CF911F910F910C949A16789484B582606E
:202EA00084BD84B5816084BD85B5826085BD85B5816085BD80916E00816080936E00109238
:202EC00081008091810082608093810080918100816080938100809180008160809380005D
:202EE0008091B10084608093B1008091B00081608093B00080917A00846080937A008091F6
:202F00007A00826080937A0080917A008E7F80937A0080917A00806880937A001092C10040
:202F2000A89580E090E0892B11F00E9400000E9423088091B1018D7F8093B1010E94F61222
:202F400041E050E063E071E080EB91E00E94151F6FEF81E090E00E943D1F8091A5018F78EF
:202F60008093A50110929B0110929A0180E091E00E943A0C8BE396E19093AA018093A901F4
:202F80000E94BB090E94BB090E941C0C0E94660CA8958091A40182FFF5CF0E943813A89525
:202FA000A8950E941C0C0E94660C0E9427150E94FE07F6CF7F928F929F92AF92BF92CF9256
:202FC000DF92EF92FF920F931F93CF93DF93CDB7DEB7A1970FB6F894DEBF0FBECDBFE6EBDD
:202FE000F1E01382128288EE93E0A0E0B0E084839583A683B7838DE391E09183808385ECF3
:2030000090E09587848784EC90E09787868780EC90E0918B808B81EC90E0938B828B82EC95
:2030200090E0958B848B86EC90E0978B868B118E128E138E148E8BE193E00E946A0B8AEFEB
:2030400092E00E946A0B0E94BB096093F6027093F7028093F8029093F90200EB12E0D801B9
:2030600011961C921E9213961C921E92129715961C921E921497FF24F3941696FC92169756
:203080001796FC92179719961C921E9218971A961C921A971B96FC928CEB92E00E946A0B3D
:2030A000F80115A616A617A610AAF1AAEE24EA94E2AA14AA13AA88E592E0A0E0B0E085ABD8
:2030C00096ABA7ABB0AFE1AE13AE12AE15AE14AE17AE16AEF092F002E092F102E092F202A1
:2030E000E092F302E092F402F092F502CE0101960E946A0B81E2FE013196ACEBB2E0019028
:203100000D928A95E1F70E94230880E891E09F938F930E94C51181E691E09F938F930E94D9
:20312000C5118DE391E09F938F930E94C51166E08CE792E00E94ED160CE712E08BE591E076
:20314000D80111969C938E9399961C921E9298979A96EC929A979B961C929B979C961C9213
:203160009C979E961C921E929D97D0961C921E929F97D1961C928BE090E00E94B6196C018E
:20318000FC0111821082128213821482158216821782108611861286BC018AEE92E00E9478
:2031A0009A16D801D396DC92CE92D29785E691E019969C938E93189761E070E08EE792E0E4
:2031C0000E9464160E948908982E89E190E00E94B619FC01D80118968D919C91199727E108
:2031E000722E758230E3E32EE68212861186AA24A394B12CB586A48616861786108A118AC8
:2032000058E9C52E51E0D52ED38AC28A148A158A168A178A108E118300831382128294822B
:2032200090878783BF018EE792E00E949A168BE591E0F801918380836FE6862E61E0962E75
:20324000918680868EE792E00E949C0823E0DC0115962C938EE792E00E949C0822E0FC01AE
:2032600026838EE792E00E949C08DC0118969C928E92179762E083E592E00E94ED1603E548
:2032800012E08FE491E0F8019183808310A685E791E09187808761E070E085E592E00E9487
:2032A00064160E948908982E89E190E00E94B619FC01D80118968D919C9119977582E68272
:2032C00012861186B586A48616861786108A118AD38AC28A148A158A168A178A108E118393
:2032E000008313821282948290878783BF0185E592E00E949A16F801F48EF78A0F900F90C3
:203300000F900F900F900F90A1960FB6F894DEBF0FBECDBFDF91CF911F910F91FF90EF9085
:20332000DF90CF90BF90AF909F908F907F900895CF93DF93C1E3D1E0D0935402C0935302AD
:2033400085E592E00E946A03D0937D02C0937C028EE792E00E946A038AEE92E00E946A03E0
:2033600080EB92E0DF91CF910C946A030F931F93CF93DF938230910510F482E090E0E091DC
:203380004C03F0914D0320E030E0A0E0B0E0309719F1408151810281138148175907C8F0FB
:2033A0008417950769F4109731F012960C93129713961C9327C000934C0310934D0322C0CB
:2033C0002115310519F04217530718F49A01BD01EF01DF01F801DBCF21153105F9F0281B55
:2033E000390B2430310580F48A819B816115710521F0FB019383828304C090934D03809306
:203400004C03FE01329644C0FE01E20FF31F8193919322503109398328833AC020914A034D
:2034200030914B03232B41F42091290130912A0130934B0320934A0320912701309128015F
:203440002115310541F42DB73EB740912B0150912C01241B350BE0914A03F0914B03E217E2
:20346000F307A0F42E1B3F0B2817390778F0AC014E5F5F4F2417350748F04E0F5F1F5093CF
:203480004B0340934A038193919302C0E0E0F0E0CF01DF91CF911F910F910895CF93DF93D3
:2034A000009709F481C0FC01329713821282A0914C03B0914D03109781F420813181820F37
:2034C000931F20914A0330914B032817390751F5F0934B03E0934A0367C0ED0120E030E0B2
:2034E000CE17DF0740F44A815B819E0141155105F1F0EA01F5CFD383C28340815181840F8A
:20350000951FC817D90759F488819981840F951F0296918380838A819B819383828321155A
:20352000310529F4F0934D03E0934C033DC0E901FB83EA8349915991C40FD51FEC17FD073F
:2035400061F480819181840F951F0296E90199838883828193819B838A83E0E0F0E0129699
:203560008D919C911397009719F0FD01DC01F7CF8D919C9111979D012E5F3F4F820F931F26
:2035800020914A0330914B032817390769F4309729F410924D0310924C0302C01382128290
:2035A000B0934B03A0934A03DF91CF910895FC0188279927E89421912032E9F3293010F06C
:2035C0002E30C8F32B3241F02D3239F4689404C00E94311B820F911D219120532A30C0F399
:2035E0001EF4909581959F4F08951F93FC0199278827BC01E89411911032E9F3193010F093
:203600001E30C8F31B3251F01D3249F4689406C00E941C1B610F711D811D911D119110539D
:203620001A30B0F33EF490958095709561957F4F8F4F9F4F1F910895592F482F372F262F95
:20364000660F771F881F991F660F771F881F991F620F731F841F951F660F771F881F991FD2
:2036600008957AE0979F902D879F802D910D11240895AEE0B0E0EFE3FBE10C94681F8C019D
:20368000FA018EE08C831A83098377FF02C060E070E8CB0101979E838D83A901BF01CE01EB
:2036A00001960E94651B4D815E8157FD0AC02F813885421753070CF49A01F801E20FF31FCF
:2036C00010822E96E4E00C94841FABE0B0E0EBE6FBE10C945A1F6C017B018A01FC011782A2
:2036E0001682838181FFCCC1CE0101963C01F6019381F70193FD859193FF81917F01882306
:2037000009F4BAC1853239F493FD859193FF81917F01853229F4B60190E00E945C1DE7CFB7
:20372000912C212C312CFFE1F315D8F08B3279F038F4803279F08332A1F4232D20611DC00D
:203740008D3261F0803369F4232D216016C0832D8260382EE32DE4603E2E2AC0F32DF86088
:203760001DC037FC2DC020ED280F2A3040F08E32B9F436FC81C1232D2064322E19C036FE5C
:2037800006C08AE0989E200D1124922E11C0EAE02E9E200D1124222EF32DF0623F2E08C0E1
:2037A0008C3621F4832D8068382E02C0883641F4F70193FD859193FF81917F018111B3CFA9
:2037C000982F9F7D9554933028F40C5F1F4F9FE399830DC0833631F0833771F0833509F054
:2037E00059C021C0F801808189830E5F1F4F88248394912C530113C02801F2E04F0E511C82
:20380000F801A080B18036FE03C0692D70E002C06FEF7FEFC5010E94511D4C018201F32D2D
:20382000FF773F2E16C0280122E0420E511CF801A080B18036FE03C0692D70E002C06FEFA0
:203840007FEFC5010E94461D4C01F32DF0683F2E820133FC1BC0822D90E088169906B0F470
:20386000B60180E290E00E945C1D2A94F4CFF50137FC859137FE81915F01B60190E00E9474
:203880005C1D21102A9421E0821A91088114910471F7E8C0843611F0893641F5F80137FE72
:2038A00007C060817181828193810C5F1F4F08C060817181072E000C880B990B0E5F1F4F90
:2038C000F32DFF763F2E97FF09C090958095709561957F4F8F4F9F4FF0683F2E2AE030E0D9
:2038E000A3010E94981D882E861845C0853731F4232D2F7EB22E2AE030E025C0932D997FDF
:20390000B92E8F36C1F018F4883579F0B5C0803719F0883721F0B0C0E92FE061BE2EB4FEAC
:203920000DC0FB2DF460BF2E09C034FE0AC0292F2660B22E06C028E030E005C020E130E01A
:2039400002C020E132E0F801B7FE07C060817181828193810C5F1F4F06C06081718180E061
:2039600090E00E5F1F4FA3010E94981D882E8618FB2DFF773F2E36FE0DC0232D2E7FA22ED4
:20398000891458F434FE0BC032FC09C0832D8E7EA82E05C0B82CA32C03C0B82C01C0B92CF3
:2039A000A4FE0FC0FE01E80DF11D8081803321F49A2D997EA92E09C0A2FE06C0B394B39459
:2039C00004C08A2D867809F0B394A3FC11C0A0FE06C0B21488F4280C922C9B180EC0B214DF
:2039E00060F4B60180E290E00E945C1DB394F7CFB21418F42B1802C0982C212CA4FE10C068
:203A0000B60180E390E00E945C1DA2FE17C0A1FC03C088E790E002C088E590E0B6010CC029
:203A20008A2D867859F0A1FE02C08BE201C080E2A7FC8DE2B60190E00E945C1D891438F47A
:203A4000B60180E390E00E945C1D9A94F7CF8A94F301E80DF11D8081B60190E00E945C1D75
:203A60008110F5CF222009F442CEB60180E290E00E945C1D2A94F6CFF6018681978102C0A3
:203A80008FEF9FEF2B96E2E10C94761FFC010590615070400110D8F7809590958E0F9F1FF9
:203AA0000895FC016150704001900110D8F7809590958E0F9F1F08950F931F93CF93DF9340
:203AC000FB01238121FD03C08FEF9FEF2CC022FF16C046815781248135814217530744F491
:203AE000A081B1819D012F5F3F4F318320838C93268137812F5F3F4F3783268314C08B0105
:203B0000EC01FB010084F185E02D0995892BE1F6D80116968D919C911797019617969C939B
:203B20008E931697CE01DF91CF911F910F910895FA01AA27283051F1203181F1E8946F9384
:203B40006E7F6E5F7F4F8F4F9F4FAF4FB1E03ED0B4E03CD0670F781F891F9A1FA11D680F31
:203B6000791F8A1F911DA11D6A0F711D811D911DA11D20D009F468943F912AE0269F1124CA
:203B80003019305D3193DEF6CF010895462F4770405D4193B3E00FD0C9F7F6CF462F4F7082
:203BA000405D4A3318F0495D31FD4052419302D0A9F7EACFB4E0A69597958795779567955F
:203BC000BA95C9F700976105710508959B01AC010A2E06945795479537952795BA95C9F74C
:203BE000620F731F841F951FA01D0895E89409C097FB3EF490958095709561957F4F8F4F27
:203C00009F4F9923A9F0F92F96E9BB279395F695879577956795B795F111F8CFFAF4BB0F34
:203C200011F460FF1BC06F5F7F4F8F4F9F4F16C0882311F096E911C0772321F09EE8872F24
:203C4000762F05C0662371F096E8862F70E060E02AF09A95660F771F881FDAF7880F9695BF
:203C6000879597F90895990F0008550FAA0BE0E8FEEF16161706E807F907C0F01216130654
:203C8000E407F50798F0621B730B840B950B39F40A2661F0232B242B252B21F408950A260E
:203CA00009F4A140A6958FEF811D811D08950E946A1E0C94DB1E0E94CD1E38F00E94D41E88
:203CC00020F0952311F00C94C41E0C94CA1E11240C940F1F0E94EC1E70F3959FC1F3950F73
:203CE00050E0551F629FF001729FBB27F00DB11D639FAA27F00DB11DAA1F649F6627B00DBC
:203D0000A11D661F829F2227B00DA11D621F739FB00DA11D621F839FA00D611D221F749F4B
:203D20003327A00D611D231F849F600D211D822F762F6A2F11249F5750409AF0F1F088232E
:203D40004AF0EE0FFF1FBB1F661F771F881F91505040A9F79E3F510580F00C94C41E0C949C
:203D60000F1F5F3FE4F3983ED4F3869577956795B795F795E7959F5FC1F7FE2B880F911D68
:203D80009695879597F9089597F99F6780E870E060E008959FEF80EC089500240A941616FF
:203DA000170618060906089500240A9412161306140605060895092E0394000C11F48823CD
:203DC00052F0BB0F40F4BF2B11F460FF04C06F5F7F4F8F4F9F4F089557FD9058440F551F89
:203DE00059F05F3F71F04795880F97FB991F61F09F3F79F087950895121613061406551F9E
:203E0000F2CF4695F1DF08C0161617061806991FF1CF86957105610508940895E894BB2701
:203E200066277727CB0197F90895DC01CB01FC01F999FECF06C0F2BDE1BDF89A319600B439
:203E40000D9241505040B8F70895F999FECF92BD81BDF89A992780B50895DC01A40FB51FE2
:203E60004150504048F0CB01840F951F2E910E943E1F41505040D0F70895262FF999FECFDF
:203E800092BD81BDF89A019700B4021639F01FBA20BD0FB6F894FA9AF99A0FBE08950E943C
:203EA000911FA59F900DB49F900DA49F800D911D112408952F923F924F925F926F927F92BB
:203EC0008F929F92AF92BF92CF92DF92EF92FF920F931F93CF93DF93CDB7DEB7CA1BDB0B0E
:203EE0000FB6F894DEBF0FBECDBF09942A88398848885F846E847D848C849B84AA84B9842B
:203F0000C884DF80EE80FD800C811B81AA81B981CE0FD11D0FB6F894DEBF0FBECDBFED017D
:203F20000895A29FB001B39FC001A39F700D811D1124911DB29F700D811D1124911D0895B3
:203F4000AA1BBB1B51E107C0AA1FBB1FA617B70710F0A61BB70B881F991F5A95A9F7809529
:203F60009095BC01CD01089597FB072E16F4009407D077FD09D00E94A01F07FC05D03EF400
:203F8000909581959F4F0895709561957F4F0895A1E21A2EAA1BBB1BFD010DC0AA1FBB1F21
:203FA000EE1FFF1FA217B307E407F50720F0A21BB30BE40BF50B661F771F881F991F1A94DA
:203FC00069F760957095809590959B01AC01BD01CF010895EE0FFF1F0590F491E02D0994FA
:203FE0005058BB27AA270E9408200C94DB1E0E94CD1E38F00E94D41E20F039F49F3F19F492
:2040000026F40C94CA1E0EF4E095E7FB0C94C41EE92F0E94EC1E58F3BA17620773078407D5
:20402000950720F079F4A6F50C940E1F0EF4E0950B2EBA2FA02D0B01B90190010C01CA016A
:20404000A0011124FF27591B99F0593F50F4503E68F11A16F040A22F232F342F4427585F9C
:20406000F3CF469537952795A795F0405395C9F77EF41F16BA0B620B730B840BBAF0915096
:20408000A1F0FF0FBB1F661F771F881FC2F70EC0BA0F621F731F841F48F48795779567957F
:2040A000B795F7959E3F08F0B0CF9395880F08F09927EE0F9795879508950E9471200C94A8
:2040C000DB1E0E94D41E58F00E94CD1E40F029F45F3F29F00C94C41E51110C940F1F0C9428
:2040E000CA1E0E94EC1E68F39923B1F3552391F3951B550BBB27AA2762177307840738F00C
:204100009F5F5F4F220F331F441FAA1FA9F335D00E2E3AF0E0E832D091505040E695001C6B
:20412000CAF72BD0FE2F29D0660F771F881FBB1F261737074807AB07B0E809F0BB0B802D91
:20414000BF01FF2793585F4F3AF09E3F510578F00C94C41E0C940F1F5F3FE4F3983ED4F3B9
:20416000869577956795B795F7959F5FC9F7880F911D9695879597F90895E1E0660F771F01
:20418000881FBB1F621773078407BA0720F0621B730B840BBA0BEE1F88F7E09508950E94C0
:2041A000D6206894B1110C940F1F08950E94F41E88F09F5798F0B92F9927B751B0F0E1F015
:2041C000660F771F881F991F1AF0BA95C9F714C0B13091F00E940E1FB1E008950C940E1F5C
:2041E000672F782F8827B85F39F0B93FCCF3869577956795B395D9F73EF490958095709530
:2042000061957F4F8F4F9F4F08950E94331E880B990B089581E090E0F8940C941E21FB0172
:20422000DC014150504048F001900D920020C9F701C01D9241505040E0F7089511E0CAE296
:20424000D1E004C0FE010E94EA1F2196CB32D107C9F7F894FFCF71100811FFFFF706F70607
:20426000FFD310990FFFFFFF00FCE1A8A83910B90F2310F50F7D0F8F0F5810D30F00004E80
:20428000038000000000005501560181065501000000008F07F8062607DC0757073507498A
:2042A000070000000057015601F905D9020000000020040C042A06550169014449474954DA
:2042C000414C5F4F0052454C415900494E54455252555054004F4B00322E332E31004D7907
:2042E00057616C6C53776974636800312E310000FFFFFFFFFFFFFFFFFFFFFFFFFFFFFFFF3C
:20430000FFFFFFFFFFFFFFFFFFFFFFFFFFFFFFFFFFFFFFFFFFFFFFFFFFFFFFFFFFFFFFFFBD
:20432000FFFFFFFFFFFFFFFFFFFFFFFFFFFFFFFFFFFFFFFFFFFFFFFFFFFFFFFFFFFFFFFF9D
:20434000FFFFFFFFFFFFFFFFFFFFFFFFFFFFFFFFFFFFFFFFFFFFFFFFFFFFFFFFFFFFFFFF7D
:20436000FFFFFFFFFFFFFFFFFFFFFFFFFFFFFFFFFFFFFFFFFFFFFFFFFFFFFFFFFFFFFFFF5D
:2078000011E0A0E0B1E0E0EFFFE702C005900D92A630B107D9F721E0A6E0B1E001C01D92D5
:20782000AD34B207E1F7CDB7DEB72997DEBFCDBF112484B78093270114BE88E1809360007B
:2078400089E280936000259A86E020E295B1922795B93FE748E391E0315040409040E1F76B
:2078600000C00000815091F78091270181FD16C08EE284B981E58CBD81E08DBD412C512C71
:207880002224239433243394AA24AA94BA2C78E0972ECC24C394E3E0DE2E40C182E0809332
:2078A000C00088E18093C10086E08093C20080E18093C400E12CF12CC12CD12CAA24AA9438
:2078C000BA2C01E0A8952BD2813461F428D2898737D38985823821F0813811F485E64FC078
:2078E00083E04DC0823411F484E103C0853419F485E032D35FC0853541F411D2E82E0FD21D
:20790000F12CF82AEE0CFF1C54C0863521F484E023D380E034C08436E1F401D200D2882E97
:20792000FED1C80CD11C912C981480F4F8D1182FF6D1F701E90DF11D212F30E0382B09013A
:2079400007BFE895112493949394EECFC701A8D130C0843761F4E3D1E2D1182FE0D1F0D242
:20796000F70185917F01E5D21150D1F724C0853741F4E6D28EE1DDD285E9DBD28FE0D9D2B9
:2079800019C08135B1F4BA82A982BC82AB82C60134E0969587953A95E1F79E838D83C60120
:2079A00091D198878F83CE010196DDD2C9D211E002C0C6D210E080E1BCD2112309F482CFD8
:2079C00057CF43E050E060E070E089E291E0EED248E050E06BE171E0CE010196E7D229982D
:2079E0002A9A63E083E2D4D16CE485E2D1D167E286E2CED163E780E5CBD164E08DE3C8D135
:207A000061E082E2C5D161E081E2C2D161E08CE3BFD121E041E060E070E086E08CD1873286
:207A200009F028C180912A01809328018FEF80932A0180932B018093080163E584E2A8D1AE
:207A400043E26AE087E05FD161E08EEFC0D1109208016FE584E29CD180912A018F3F09F4F8
:207A600009C18091290181508E3F08F05AC030920D0110920E0143EC62E18FE044D160E09A
:207A80008FE0A5D18D819E8124E0880F991F2A95E1F718D198878F83FE013196ADE0B1E0EC
:207AA000892D01900D928A95E1F7D0921601C092150144EC62E580E026D163E081E087D13E
:207AC000882309F4D7C048E050E063E371E0CE0101965FD2892B09F4CDC080913701909139
:207AE0003801009709F045C08091390190913A018A379A4D09F041C08091330190913401D4
:207B00008130910571F500E010E06FEFC8015ED20F5F1F4F011524E01207B9F7F999FECF73
:207B200050CF43E262E083E0EED063E084E04FD1882309F496CF80912F0186958695869538
:207B4000E3E3F1E060E0815048F02191660F962F990F990F690F6053620FF5CF80E090E0D9
:207B600006C0029782309105C8F6609135012ED2D5CF8038974008F07DC0E3E3F1E0DE019B
:207B80001196892D01900D928A95E1F7EF80F884B886AF82CE010196E6D16D807E808981F5
:207BA0009A8190930E0180930D018B819C819093100180930F018301015011091093120132
:207BC0000093110144EC62E382E09DD063E083E0FED0882309F44BCF46E050E063E371E099
:207BE0008DE091E0D6D1892BD1F6C3018150904F282F22952077822E40E050E0622F70E08B
:207C0000DA01A45DBE4FFA01E60FF71F1E962C911E9730E0322F22271D96AC912A2B090146
:207C200027BEE89511244E5F5F4F4031510541F7811006C044E0880F991F4A95E1F730D0D2
:207C40000115110511F03801AACFF886EF828D819E8134E0880F991F3A95E1F733D08E1579
:207C60009F0521F01E821D8218861F82CE0101967AD154CF8D819E8124E0880F991F2A95BE
:207C8000E1F720D02F8138858217930709F046CF1CBCA89580912701282EF20109953ECF2C
:207CA00023E0FC0127BFE89507B600FCFDCF25E0FC0127BFE89507B600FCFDCF81E187BF4A
:207CC000E8950895BC01E0E0F0E08FEF9FEFE617F707C0F4E11528E7F207A0F42591822791
:207CE00048E0DC01B695A7959C01217033273195219531092170307AC9018A279B274150B1
:207D000081F7E5CF089590912901E6E0F1E0918390839FEF96838583448363830895809187
:207D2000C00087FFFCCF8091C00084FD01C0A8958091C60008952A989AE19A95F1F700C05A
:207D40008EBD0DB407FEFDCF8EB59FEF4150D0F0222369F09EBD0DB407FEFDCF8EB56115E0
:207D60007105A1F3DB018C936F5F7F4FEFCFFB013196DB018C918EBD0DB407FEFDCF8EB5C8
:207D8000BF01E4CF2A9ABAE1BA95F1F700C00895CF93DF931F92CDB7DEB7698320E041E0D2
:207DA000BE016F5F7F4FC7DF0F90DF91CF91089520E040E060E070E082EEBDDF20E040E0DA
:207DC00060E070E081EEB7DF60E787E2E1CFFF920F931F93CF93DF93F82ED62FC09109016F
:207DE000C695C695C695C95F10912A0129986EE080E2CEDF1093000120E045E060E071E006
:207E00008AE299DF20E045E060E071E080E393DF20E04C2F66E071E080EA8DDF299A8AE0DE
:207E20008A95F1F700C020E040E060E070E08FEF82DF8073C1F32998BBDF6FE080E2A8DFB2
:207E4000609129018AE2A4DF299A0FEF1FEFA89521E041E060E070E087E16DDF80FF02C065
:207E60008FEF4BC021E041E060E070E080E663DFC82F813208F0C0E021E04C2F6CE271E0C2
:207E800081E659DF95DF4C2F50E020912F0126952695269530E0295F3F4F4217530701F741
:207EA00090912E01809129019813DACF80913101909130019770933001F58830F1F4209140
:207EC0002A0190912801291302C09F3FB1F420912D01291304C090932A018EEF0EC0309173
:207EE000330191E0930F9093330140912B01341720F490932B0120932A0191E08F1190E0DA
:207F000088E08A95F1F70150110921F4892FD11105C009C0992309F49ACF04C0D150992387
:207F200009F45CCF81E0DF91CF911F910F91FF9008959091C00095FFFCCF8093C6000895B6
:207F4000EEDE803239F088E18093600088E080936000FFCF84E1EDCFCF93C82FE0DEC150AC
:207F6000E9F7CF91EDCF0F931F93CF93DF938C01CBE1D1E0F80161918F01CE0127D02196FB
:207F8000C332F1E0DF07B1F7DF91CF911F910F910895FB01DC0104C08D910190801921F4D6
:207FA00041505040C8F7881B990B0895DC01CB01FC01F999FECF06C0F2BDE1BDF89A31968C
:207FC00000B40D9241505040B8F70895262FF999FECF92BD81BDF89A019700B4021639F081
:167FE0001FBA20BD0FB6F894FA9AF99A0FBE089500FCE1A8A800C6
:00000001FF
